:100000000C94E40D0C94010E0C94010E0C94983297
:100010000C94010E0C94010E0C94010E0C94010E24
:100020000C94010E0C94010E0C949C2C0C94572BE8
:100030000C944B2E0C94010E0C94010E0C94010E9A
:100040000C94010E0C94010E0C94010E0C94010EF4
:100050000C94010E0C94E22D0C94010E0C94010EE4
:100060000C94010E0C94010E0C94010E0C94010ED4
:100070000C94010E0C94010E0C94010E0C94010EC4
:100080000C94010E0C94010E0C94010E0C94010EB4
:100090000C94010E0C94010E0C94010E0C94010EA4
:1000A0000C94010E0C94010E0C94010ED414EE1459
:1000B000F514A415A4152D153E154F158C15911585
:1000C000A415A415A41599158A188A18BD18BD1869
:1000D00053197D1A7D1A7D1A7119E519F619F61949
:1000E000E9281029C52A1029C52A5C297F29C52A93
:1000F000802A902A00DA0281FFD9F1DB20A4A62E03
:10010000AF00A0C000A1C800AED580A81FD300409A
:100110008D1420004241534520004C4F574552005A
:100120005241495345002020202020200A004C4104
:10013000594552002020202020200A00202057501E
:100140004D200A200A0020202020002020202020EE
:100150002000FD377A585A000004E6D6B446020063
:10016000210116000000742FE5A3E0042F01425D79
:10017000003D8889C65436C3174FE4DCCBB3DF6338
:1001800020E7D71739D83D5F52C90BECB7E6D51930
:100190005224B0736759B3E0B456C74788C9652085
:1001A000CF4A3C940C015E29865C8E1FD29014705D
:1001B000DD8177B2096EB5F6AEE987F3FD6E86286C
:1001C000D433CFB875786A02A926DEE8E6250BF2AB
:1001D000F12FEB95EF757127C27F9195E2635AB0CD
:1001E000D245B872C0B554D7004EDE62BA2013941F
:1001F0005BD1FF5921584935658A11E5CA1A840136
:10020000C66412A7BCC461E80A8B8F1814972CD45B
:1002100085C2CA11139D8194454D5141C1135A079E
:10022000F3F59C8A2EB089D73F3EF2C32110C396C6
:10023000AA6256BA70B31061455FB111971836BB08
:1002400016666F7B478FC44223D0767E3FA7ECEAC9
:100250000CBF2774C309BD093C35A8EED8AEC7E969
:10026000FF0F2F64DF72C5CDF6701A8177ECEF6354
:100270004989711EFAEC985A059B0A0F6BC0B3822C
:10028000F93085B0A8A630E1DE91E0E101A42FEEBF
:10029000CFFAB4CC09FA55E9DC3EB4782343F5F73C
:1002A00045FEAA6A7F620EBDEBFB2CF315BF380D2D
:1002B0004959E00000005614AADD3187545C000162
:1002C000DE02B0080000C0E5C082B1C467FB0200D6
:1002D00000000004595A0000000000000000000067
:1002E000000000000000000000000000000000000E
:1002F00000000000000000000000000000000000FE
:1003000000000000000000000080800000000000ED
:10031000804040202020201010101008040201010D
:10032000020C30408000000000000000F8F8F8F8EF
:1003300000000000008080000000000000000000BD
:1003400000000000000000000000000000000000AD
:10035000000000808080000000000000000000001D
:10036000000000000000000000000000000000008D
:10037000000000000000000000000000000000007D
:10038000000000000000001EE100000101020281E7
:1003900080800000808000000000000000000080DD
:1003A00000303000000101020408102043870701DB
:1003B00000B8BCBE9F5F5F4F4C2020202010101063
:1003C00010080808080804040404040202020201D8
:1003D000010101000000000000000000000000001A
:1003E000000000000000000000000000000000000D
:1003F00000000000000000000000000000000000FD
:1004000000000000000080700C0300001806059832
:100410009984437C4141404020212212111111094D
:1004200008080808040408081010101010110F0123
:100430003D7CFCFCFCFCFC3C0C00000000000000CF
:1004400000000000000000000000000000000000AC
:10045000000000000000000000000000000000009C
:10046000000000000000008080808080404040400C
:100470004020202020201010101010080808080824
:100480000404040404020302020101010101010049
:10049000000000000000000000000000000000005C
:1004A000000000000000000000000000000000004C
:1004B0000000000103030000000000000000000035
:1004C000000000000000000000000000000000002C
:1004D000000000000000000000000000000000001C
:1004E000000000000000000000000000000000000C
:1004F00000000000000000000000000000000000FC
:1005000000000000000000000080800000000000EB
:10051000804040202020201010101008040201010B
:10052000020C3040800000000000000000000000CD
:1005300000000000000000000000000000000000BB
:1005400000000000000000000000000000000000AB
:10055000000000808080000000000000000000001B
:10056000000000000000000000000000000000008B
:10057000000000000000000000000000000000007B
:10058000000000000000001EE10000010102020165
:1005900000000000808000000000000000000080DB
:1005A000003030000001E11A06093135018A7C0073
:1005B000008080808040404040202020201010108B
:1005C00010080808080804040404040202020201D6
:1005D0000101010000000000000000000000000018
:1005E000000000000000000000000000000000000B
:1005F00000000000000000000000000000000000FB
:1006000000000000000080700C03000000000000EB
:100610000000000001010040A02122121111110967
:100620000808080804040404040402020201010189
:1006300001000000000000000000000000000000B9
:1006400000000000000000000000000000000000AA
:10065000000000000000000000000000000000009A
:10066000000000000000008080808080404040400A
:100670004020202020201010101010080808080822
:10068000040404040402037A7A797979793931020D
:100690000204040808088888878000000000000021
:1006A000000000000000000000000000000000004A
:1006B000000000000000000000000000000000003A
:1006C000000000000000000000000000000000002A
:1006D000000000000000000000000000000000001A
:1006E000000000000000000000000000000000000A
:1006F00000000000000000000000000000000000FA
:1007000000000000000000000080800000000000E9
:100710008040402020202010101010080402010109
:10072000020C3040800000000000000000000000CB
:1007300000000000000000000000000000000000B9
:1007400000000000000000000000000000000000A9
:100750000000008080800000000000000000000019
:100760000000000000000000000000000000000089
:100770000000000000000000000000000000000079
:10078000000000000000001EE100000101020281E3
:1007900080800000808000000000000000000080D9
:1007A000003030000001E11A06093135018A7C0071
:1007B0000080808080404040402020202010101089
:1007C00010080808080804040404040202020201D4
:1007D0000101010000000000000000000000000016
:1007E0000000000000000000000000000000000009
:1007F00000000000000000000000000000000000F9
:1008000000000000000080700C030000180605982E
:100810009984C37C414140402021221211111109C9
:100820000808080804040404040402020201010187
:1008300001000000000000000000000000000000B7
:1008400000000000000000000000000000000000A8
:100850000000000000000000000000000000000098
:100860000000000000000080808080804040404008
:100870004020202020201010101010080808080820
:100880000404040404020302020101010101010045
:100890000000000000000000000000000000000058
:1008A0000000000000000000000000000000000048
:1008B0000000000000000000000000000000000038
:1008C0000000000000000000000000000000000028
:1008D0000000000000000000000000000000000018
:1008E0000000000000000000000000000000000008
:1008F00000000000000000000000000000000000F8
:1009000000000000000000000000000000000000E7
:1009100080404020202020101010101008080404EF
:1009200004083040800000000000000000000000CB
:1009300000000000000000000000000000000000B7
:1009400000000000000000000000000000000000A7
:100950000000008080800000000000000000000017
:100960000000000000000000000000000000000087
:100970000000000000000000000000000000000077
:10098000000000000000001864820202020202015E
:1009900000000000808000000000000000000080D7
:1009A00000303000C0C1C1C20408102040800000E7
:1009B0000080808080404040402020202010101087
:1009C00010080808080804040404040202020201D2
:1009D0000101010000000000000000000000000014
:1009E0000000000000000000000000000000000007
:1009F00000000000000000000000000000000000F7
:100A0000000000000000C0380403000000000000E7
:100A1000000C0C0C0D010040A02122121111110933
:100A200008080808040408081010101010110F011D
:100A300001000000000000000000000000000000B5
:100A400000000000000000000000000000000000A6
:100A50000000000000000000000000000000000096
:100A60000000000000000080808080804040404006
:100A7000402020202020101010101008080808081E
:100A80000404040404020302020101010101010241
:100A9000020404080808080807000000000000001D
:100AA0000000000000000000000000000000000046
:100AB0000000000000000000000000000000000036
:100AC0000000000000000000000000000000000026
:100AD0000000000000000000000000000000000016
:100AE0000000000000000000000000000000000006
:100AF00000000000000000000000000000000000F6
:100B000000000000000000000000000000000000E5
:100B100080404020202020101010101008080404ED
:100B200004083040800000000000000000000000C9
:100B300000000000000000000000000000000000B5
:100B400000000000000000000000000000000000A5
:100B50000000008080800000000000000000000015
:100B60000000000000000000000000000000000085
:100B70000000000000000000000000000000000075
:100B8000000000000000001864820202020202015C
:100B900000000000808000000000000000000080D5
:100BA00000303000C0C1C1C20408102040800000E5
:100BB0000080808080404040402020202010101085
:100BC00010080808080804040404040202020201D0
:100BD0000101010000000000000000000000000012
:100BE0000000000000000000000000000000000005
:100BF00000000000000000000000000000000000F5
:100C0000000000000000C0380403000000000000E5
:100C1000000C0C0C0D010040A02122121111110931
:100C200008080808040408081010101010110F011B
:100C300001000000000000000000000000000000B3
:100C400000000000000000000000000000000000A4
:100C50000000000000000000000000000000000094
:100C60000000000000000080808080804040404004
:100C7000402020202020101010101008080808081C
:100C8000040404040402030202010101010101023F
:100C9000020404080808080807000000000000001B
:100CA0000000000000000000000000000000000044
:100CB0000000000000000000000000000000000034
:100CC0000000000000000000000000000000000024
:100CD0000000000000000000000000000000000014
:100CE0000000000000000000000000000000000004
:100CF00000000000000000000000000000000000F4
:100D000000000000000000000000000000000000E3
:100D10000080804040404020202020100804020233
:100D200004186080000000000000000000000000C7
:100D300000000000000000000000000000000000B3
:100D400000000000000000000000000000000000A3
:100D50000000008080800000000000000000000013
:100D60000000000000000000000000000000000083
:100D70000000000000000000000000000000000073
:100D8000000000000000003CC20101020204040255
:100D90000100000000000000000000000000000052
:100DA0000060600081828284081020408000000082
:100DB0000080808080404040402020202010101083
:100DC00010080808080804040404040202020201CE
:100DD0000101010000000000000000000000000010
:100DE0000000000000000000000000000000000003
:100DF00000000000000000000000000000000000F3
:100E000000000000000080701906000000000000D3
:100E1000001818181B030040A02224141212120BF1
:100E200008080808050509091010101010110F0115
:100E300001000000000000000000000000000000B1
:100E400000000000000000000000000000000000A2
:100E50000000000000000000000000000000000092
:100E60000000000000000080808080804040404002
:100E7000402020202020101010101008080808081A
:100E8000040404040402030202010101010101023D
:100E90000204040808080808070000000000000019
:100EA0000000000000000000000000000000000042
:100EB0000000000000000000000000000000000032
:100EC0000000000000000000000000000000000022
:100ED0000000000000000000000000000000000012
:100EE0000000000000000000000000000000000002
:100EF00000000000000000000000000000000000F2
:100F000000000000000000000080800000000000E1
:100F10008040402020202010101010080402010101
:100F2000020C3040800000000000000000000000C3
:100F300000000000000000000000000000000000B1
:100F400000000000000000000000000000000000A1
:100F50000000008080800000000000000000000011
:100F60000000000000000000000000000000000081
:100F70000000000000000000000000000000000071
:100F8000000000000000001EE1000001010202015B
:100F900000000000808000000000000000000080D1
:100FA00000303000C0C1C1C20408102040800000E1
:100FB0000080808080404040402020202010101081
:100FC00010080808080804040404040202020201CC
:100FD000010101000000000000000000000000000E
:100FE0000000000000000000000000000000000001
:100FF00000000000000000000000000000000000F1
:1010000000000000000080700C03000000000000E1
:10101000000C0C0C0D010040A0212212111111092D
:1010200008080808040408081010101010110F0117
:1010300001000000000000000000000000000000AF
:1010400000000000000000000000000000000000A0
:101050000000000000000000000000000000000090
:101060000000000000000080808080804040404000
:101070004020202020201010101010080808080818
:10108000040404040402030202010101010101023B
:101090000204040808080808070000000000000017
:1010A0000000000000000000000000000000000040
:1010B0000000000000000000000000000000000030
:1010C0000000000000000000000000000000000020
:1010D0000000000000000000000000000000000010
:1010E0000000000000000000000000000000000000
:1010F00000000000000000000000000000000000F0
:1011000000000000000000000000000000000000DF
:1011100080404020202020101010100808040202F7
:1011200002043840800000000000000000000000C1
:1011300000000000000000000000000000000000AF
:10114000000000000000000000000000000000009F
:10115000000000808080000000000000000000000F
:10116000000000000000000000000000000000007F
:10117000000000000000000000000000000000006F
:10118000000000000000001CE20101020202020156
:1011900000000000808000000000000000000080CF
:1011A00000303000C0C1C1C20408102040800000DF
:1011B000008080808040404040202020201010107F
:1011C00010080808080804040404040202020201CA
:1011D000010101000000000000000000000000000C
:1011E00000000000000000000000000000000000FF
:1011F00000000000000000000000000000000000EF
:1012000000000000000080700C03000000000000DF
:10121000000C0C0C0D010040A0212212111111092B
:1012200008080808040408081010101010110F0115
:1012300001000000000000000000000000000000AD
:10124000000000000000000000000000000000009E
:10125000000000000000000000000000000000008E
:1012600000000000000000808080808040404040FE
:101270004020202020201010101010080808080816
:101280000404040404020302020101010101010239
:101290000204040808080808070000000000000015
:1012A000000000000000000000000000000000003E
:1012B000000000000000000000000000000000002E
:1012C000000000000000000000000000000000001E
:1012D00000000000000005010980A101850319013B
:1012E0002AB700150126B700950175108100C005C9
:1012F0000C0901A101850419012AA002150126A0EB
:1013000002950175108100C005010906A10185063D
:10131000050719E029E715002501950875018102E7
:101320000507190029EF1500250195F075018102C7
:1013300005081901290595057501910295017503A7
:101340009101C00660FF0961A1010962150026FF35
:10135000009520750881020963150026FF0095207D
:1013600075089102C005010906A101050719E029C8
:10137000E715002501950875018102950175088121
:10138000010507190029FF150026FF0095067508BD
:10139000810005081901290595057501910295013E
:1013A00075039101C009025B00030100A0FA090462
:1013B0000000010301010009211101000122400088
:1013C0000705810308000109040100020300000071
:1013D00009211101000122220007058203200001DA
:1013E00007050303200001090402000103000000B7
:1013F000092111010001226D00070584032000016D
:101400001201000200000008534601000100010221
:1014100003011C037600690061006C003A0066005D
:1014200036003400630032006200330063000000C5
:101430000C0343006F0072006E0065000000100393
:1014400066006F006F007300740061006E000000A2
:101450000403090400000000000000000000000078
:10146000000000000000000000000000000000007C
:1014700000000000000000007E0F00D4FFFFFFC747
:101480000000007800000000000000002A2B280067
:101490000000000000000000000000000000002923
:1014A000000000002C1E3420212224342627252E63
:1014B000362D3738271E1F2021222324252633339B
:1014C000362E37381F0405060708090A0B0C0D0EC7
:1014D0000F101112131415161718191A1B1C1D2F93
:1014E0003130232D350405060708090A0B0C0D0EB3
:1014F0000F101112131415161718191A1B1C1D2F73
:101500003130354C0000000000003E5B4F5B3E0078
:101510003E6B4F6B3E001C3E7C3E1C00183C7E3CEC
:1015200018001C577D571C001C5E7F5E1C000018B5
:101530003C180000FFE7C3E7FF0000182418000074
:10154000FFE7DBE7FF0030483A060E00262979293D
:101550002600407F05050700407F05253F005A3CD7
:10156000E73C5A007F3E1C1C0800081C1C3E7F0004
:1015700014227F2214005F5F005F5F0006097F0175
:101580007F00006689956A0060606060600094A2D8
:10159000FFA2940008047E04080010207E201000A2
:1015A00008082A1C0800081C2A0808001E10101031
:1015B00010000C1E0C1E0C0030383E383000060E99
:1015C0003E0E060000000000000000005F0000006A
:1015D000000700070000147F147F1400242A7F2ACC
:1015E0001200231308646200364956205000000898
:1015F00007030000001C224100000041221C0000E3
:101600002A1C7F1C2A0008083E0808000080703051
:1016100000000808080808000000606000002010B2
:10162000080402003E5149453E0000427F40000050
:101630007249494946002141494D33001814127F2F
:1016400010002745454539003C4A494931004121B0
:1016500011090700364949493600464949291E0003
:1016600000001400000000403400000000081422B4
:101670004100141414141400004122140800020143
:10168000590906003E415D594E007C1211127C0042
:101690007F49494936003E41414122007F41414155
:1016A0003E007F49494941007F09090901003E4147
:1016B000415173007F0808087F0000417F4100000E
:1016C0002040413F01007F08142241007F404040FC
:1016D00040007F021C027F007F0408107F003E4113
:1016E00041413E007F09090906003E4151215E004B
:1016F0007F091929460026494949320003017F0123
:1017000003003F4040403F001F2040201F003F405B
:1017100038403F0063140814630003047804030096
:101720006159494D4300007F4141410002040810C6
:101730002000004141417F000402010204004040BA
:101740004040400000030708000020545478400047
:101750007F2844443800384444442800384444280E
:101760007F0038545454180000087E0902001824E1
:10177000241C78007F080404780000447D400000A9
:101780002040403D00007F102844000000417F4081
:1017900000007C04780478007C0804047800384455
:1017A000444438007C1824241800182424187C0091
:1017B0007C080404080048545454240004043F44A2
:1017C00024003C4040207C001C2040201C003C4069
:1017D00030403C004428102844004C9090907C00FD
:1017E0004464544C44000008364100000000770077
:1017F00000000041360800000201020402003C26FD
:1018000023263C0000000000000000000000000053
:1018100000000000C0E0F0F8F81800C0F0FCFEFF87
:10182000FFFFFFFFFFFF7E00000000000000000040
:1018300080C0E0E0E0E0E0E0E0E0C0800000000028
:1018400080C0E0E0E0E0E0E0E0E0C080000000E038
:10185000E0C0C0E0E0E0E00000E0E0C0C0E0E0E0C8
:10186000E0E0C0800000000080C0E0E0E0E0E0E0F8
:10187000E0E0C08000000000000000000000000068
:101880000000E0F0F0F0E0ECEEF7F37020007C7C7C
:101890007C7E007E7E7E7F7F7F000080C0E07E5B5E
:1018A0004F5BFEC00000C000DCD7DEDEDED7DC0010
:1018B000C000000000000000000000000000000068
:1018C00000000000000000000000000000F8FCFE26
:1018D000FFE000FFFFFFFFFFFF80FFFFFFFFFFFFB5
:1018E000FFFFFF1F0701000000000000000000FFD5
:1018F000FFFF8100000000000081C3C3C30000FFA0
:10190000FFFF8100000000000081FFFFFF0000FFDB
:10191000FFFF01000000000000FFFFFF01000000CA
:101920000001FFFFFF0000FFFFFF9D1C1C1C1C1C93
:101930001C9DDFDFDF000000000000000000000051
:1019400000000F1F3F7F7F7F7F7F3F1E0C001F1F08
:101950001F3F003F3F3F7F7F7F00307B7F783020FD
:101960002030787F3B0003000F7F0F0F0F7F0F00A9
:101970000300000000000000000000000000000064
:1019800000000000000000000000000000030F1F26
:101990003F3F3F3F1F1F3F3F7F7F7F3F3F1F3F7FB7
:1019A0007F7F7F7C7878381C0F00000000000000EB
:1019B00001030707070707070707030100000000E7
:1019C00001030707070707070707030100000007D0
:1019D00007070000000000000007070700000000E4
:1019E00000000707070000000103070707070707B4
:1019F00007070301000000000000000000000000D5
:101A000000000000000000000000000000000000D6
:101A100000000000000000000000000000000000C6
:101A200000000000000000000000000000000000B6
:101A300000000000000000000000000000000000A6
:101A4000000000002B0014001A0008001500170009
:101A5000E00004001600070009000A00E1001D0074
:101A60001B00060019000500000000000000E30054
:101A7000105F2C002A00130012000C0018001C003C
:101A8000340033000F000E000D000B002900380059
:101A90003700360010001100000000000000E600D2
:101AA000115F28002B001E001F00200021002200D3
:101AB000E00000000000000000000000E100000065
:101AC0000000000000000000000000000000E30033
:101AD00001002C002A0027002600250024002300F6
:101AE000000000004F0052005100500000000000B4
:101AF0000000000000000000000000000000E60000
:101B0000010028002B001E021F02200221022202D7
:101B1000E00000000000000000000000E100000004
:101B20000000000000000000000000000000E300D2
:101B300001002C002A00270226022502240223028B
:101B40003500310030002F002E002D00350231020B
:101B500030022F022E022D02000000000000E600DD
:101B600001002800005C00000000000000000000F0
:101B7000C25CC55CC75CC95C00000000C35CC65C9D
:101B8000C85CCA5C00000000000000000000E30028
:101B900001002C0000000000000000000000000018
:101BA0000000000000000000000000000000000035
:101BB0000000000000000000000000000000E6003F
:101BC0000100280000AF00AE11241FBECFEFDAE005
:101BD000DEBFCDBF11E0A0E0B1E0E2E6FFE602C06B
:101BE00005900D92A839B107D9F725E0A8E9B1E031
:101BF00001C01D92AA34B207E1F70E94030E0C94B3
:101C0000AF370C940000A5E3B0E0E9E0FEE00C94EF
:101C1000CD3385B7806885BF85B7806885BF84B7B9
:101C2000877F84BF0FB6F894A89580916000886183
:101C300080936000109260000FBE90E080E80FB6C5
:101C4000F89480936100909361000FBE89E79BE157
:101C500090939901809398010E949B2B0E94412CA4
:101C60008091E20084608093E200789480911D036B
:101C70008823A1F01091E9001F709091EC00892F4A
:101C8000817090FD80E8182B1092E9008091E800A7
:101C900083FD0E9404281F701093E90082E084BD38
:101CA00093E095BD9AEF97BD80936E0010929A01D4
:101CB00010929B0110929C0110929D010E947B301A
:101CC000811102C00E946B300E94D51C80930001DC
:101CD0000E94D51C81110E94533280910001809195
:101CE0000001882311F090E001C094E09093A701D7
:101CF00084E0891B8093A60103E411E0B7E4EB2E96
:101D0000B1E0FB2ED8018D918D018F3F11F00E9423
:101D1000541DE016F106B1F707E411E0F8018191D6
:101D20008F018F3F11F00E94541DF1E00D341F0709
:101D3000A9F788E0ECE2F2E0DF01282F1D922A9556
:101D4000E9F7EEE9F1E0DF011D928A95E9F780E01D
:101D500090E00E941534883E9E4F21F40E947B3013
:101D6000811102C00E94F21E82E090E00E940D34B8
:101D70008093AA0184E090E00E940D34182F82E243
:101D800090E00E940D34212F30E0382B3093450530
:101D9000209344050E94F11FEFE3FCE93197F1F72E
:101DA00000C000000E94F11F0E94D51C882311F082
:101DB000E0E001C0E4E0F0E0E45DFD4F808181FF00
:101DC00008C06FEF7FEF80E090E00E9439340E94FE
:101DD000D12D83E090E00E940D340E9476240E9471
:101DE000D51C811102C082E001C083E080932302F0
:101DF00080FD02C080E801C080E280931F030E9442
:101E000009316DE070E087E091E00E94BE26892BE9
:101E100009F043C08091230263E070E081FD3AC085
:101E200084E091E00E94BE26892BB9F56DE070E058
:101E300084EF90E00E94BE26892B79F50E94332E14
:101E4000DC01CB01805A9541AF4FBF4F80933005E5
:101E500090933105A0933205B0933305E2E2F3E0AD
:101E600080E092E0DF019C011D9221503040E1F7BB
:101E7000F0932905E09328058FEF9FEF90932103BE
:101E80008093200381E08093350580933405109280
:101E9000240203C081E091E0C5CF0E94D51C8111CE
:101EA00002C00E94563281E091E090933C058093FD
:101EB0003B0522242394312C80911D03853009F0A9
:101EC00048C000E112E180911D03853009F03BC05C
:101ED00080911D03843031F10E94422F10923F0502
:101EE00088E190E0A0E40FB6F894A8958093600094
:101EF0000FBEA093600083B7817F846083BF83B7E8
:101F0000816083BF7894889583B78E7F83BF0FB637
:101F1000F894A89580916000886180936000109289
:101F200060000FBE80911303882309F4CCCF0E9478
:101F3000F11FECE2F2E0819181110BC6B2E0E433D3
:101F4000FB07C9F7C0CF1092EF020E947B240E94CA
:101F5000C82E0E94F11F0BEA11E0ECE2F2E0FDABAB
:101F6000ECABDF01F80191918D91892721E0E33BF2
:101F7000F20719F08823B9F322C0811120C00E9412
:101F80003F2E8C018091A8019091A9010817190793
:101F900009F4F7C58FEF89A78AA71BA60E943F2ED9
:101FA0008160782F9DA78CA749A55AA56BA58DA503
:101FB0000E94B01A1093A9010093A801E2C50E94E3
:101FC000D51C882EFCE2EF2EF2E0FF2ED12CD7019B
:101FD0009D907D01F801A080A92419F1C12CBB249A
:101FE000B3948A2D8B21B1F08820A1F0CEA6DFA674
:101FF00091E0892D8B2109F490E098AB0E943F2E4F
:102000008160782F9AAB89AB4EA55FA568A98AA994
:102010000E94B01AC394BB0CF6E0CF12E2CFD801F5
:102020009C92D3940F5F1F4FB8E0DB12D0CF0E9479
:10203000332EB1E0BBAB0E94D51C882309F4C9C084
:10204000C090BE01D090BF010D2C000CEE08FF081F
:1020500010910D01412F50E0E0ECF1E081E090E0C3
:102060004817590764F0219131914901330FAA08AB
:10207000BB08C80CD91CEA1CFB1C0196F1CFF7FE6B
:1020800003C0C12CD12C76016091BA017091BB01C3
:102090008091BC019091BD010E94082E2B013C0152
:1020A000A0E6BAEEA70196010E94BD344B015C0187
:1020B000E8EC1E9F90011124C901330FAA0BBB0B42
:1020C0009C01AD01240D351D461D571DA5E0B0E056
:1020D0000E94BD349B01AC01C501B4010E946F3464
:1020E00049015A0157FD0BC0213F310541055105FA
:1020F0004CF0E0EF8E2E912CA12CB12C03C0812C42
:10210000912C540129EC421651046104710414F11C
:102110008091B90190E0019669E170E00E945B3422
:102120008093B901880F991FFC01E254FE4F118280
:102130001082183110F41F5F01C018E110930D01D7
:102140000E94332E6093BA017093BB018093BC014F
:102150009093BD0132E0C316D104E104F1041CF4F4
:10216000812C912C54016091B5017091B601809140
:10217000B7019091B8010E94082E6B017C0185E6A1
:10218000C816D104E104F10484F00E94332E609358
:10219000B5017093B6018093B7019093B801809117
:1021A000FA018093B4018092B3011091B401A0911F
:1021B000B301B0E0A11BB109A70196010E94C83488
:1021C00024E630E040E050E00E949134120F10937A
:1021D000FA0180913505882309F4C5C18091250253
:1021E000909126020E94242EC29708F4BDC00E943E
:1021F0003F2E909326028093250282E293E09093F3
:102200002905809328050E94D51C882309F453C012
:102210008BE491E00E94632686E491E00E946326AD
:102220008091FA011F928F938EE391E09F938F9399
:1022300000EF11E01F930F930E94FC34F80101900E
:102240000020E9F78F01015011090F900F900F90B6
:102250000F900F900F9060EFE62E61E0F62EE016E3
:10226000F10630F4D7018D917D010E94B725F7CF9B
:102270008CE391E00E94632684E391E00E94632650
:102280008EE291E00E94632686E291E00E9463263E
:1022900080911E030E94E415813029F0823031F4D0
:1022A00080E291E005C08AE191E002C084E191E022
:1022B0000E94632659C08091FA01882341F10E944F
:1022C0005C2F6091FF01709100028091010290915A
:1022D00002020E94082E693C71058105910560F09B
:1022E0000E94332E6093FF017093000280930102DD
:1022F000909302020E9425160E94332E6093FB01E8
:102300007093FC018093FD019093FE012DC06091BC
:10231000FB017091FC018091FD019091FE010E94F2
:10232000082E613C77428940910518F00E94422FA7
:102330001BC06091FF017091000280910102909199
:1023400002020E94082E693C71058105910560F02A
:102350000E94332E6093FF0170930002809301026C
:10236000909302020E94251680913505882309F476
:10237000DFC020912003309121032115310509F49C
:10238000D7C0809124028111D3C0882E912CEE24D5
:10239000E394F12C082E02C0EE0CFF1C0A94E2F725
:1023A000A9014E215F21452B11F48F5FEECF909153
:1023B0002302940145E0220F331F4A95E1F790FD77
:1023C00012C08295880F807680931001220F232FF0
:1023D000221F330B319520931301815E80931101ED
:1023E0001092140112C005E0369527950A95E1F781
:1023F000220F220F220F2093100110921301295F48
:102400002093110183E08093140124E630E047E03B
:1024100050E06EE071E088E70E94B131892B09F04D
:1024200087C08091230280FD23C0C40115E0880F7E
:10243000991F1A95E1F7AC014E5D5C4F04E610E080
:1024400020E230E060E488E70E94D231892B09F075
:102450006FC00E945C2FE094F094809120039091D3
:102460002103E822F922F0922103E092200360C0C8
:1024700080E2E3E0F2E0DF011D928A95E9F7A5E052
:10248000880C991CAA95E1F7B1E54B2EB1E05B2EC3
:102490004DE451E0F20181912F01DA019D91AD01EE
:1024A000B401690F711D6E5D7C4F90E08D5F9D4F93
:1024B000FC0107E09F01281B390BCC24C39401C009
:1024C000CC0C2A95EAF73B01D12CD3011D913D019B
:1024D0001C21202F2D192770B22E022E000C330B39
:1024E000B12F01C0BB0FBA94EAF7BB2E31952195ED
:1024F00031092770332701C016952A95EAF7B12ACA
:102500001081B12AB082D39428E0D212DECF0150DC
:1025100031960F3F79F635E5431631E0530609F061
:10252000B9CF04E610E020E230E043E052E08ACF89
:10253000809134058823B9F00E94332E0091300534
:10254000109131052091320530913305DC01CB012A
:10255000801B910BA20BB30B8F3F9F4FAF4FBF4719
:1025600010F40E94422FFBA9F1110E945C2F0E94DF
:10257000C82E90912702891721F0809327020E948C
:10258000332E80911D03843009F096CC83E0809334
:10259000E9008091E80082FF8FCC8091E80085FF00
:1025A00023C00E94BA2B81111DC0F0E2EF2EF12C46
:1025B0008E010F5F1F4F09C08091F100D8018D93EC
:1025C0008D01B1E0EB1AF10869F08091E80085FD1A
:1025D000F3CF8091E8008B778093E8000E94BA2BBC
:1025E000882399F391E001C090E08091E8008B7717
:1025F0008093E800992309F45FCCE0902E05F090D9
:102600002F058981E114F10459F08E3F09F09CC235
:102610009A81933070F19550933008F095C229C09B
:102620008B3009F49EC110F5853009F471C0B0F407
:102630008230E1F130F4813009F084C21A8289E0FD
:1026400069C2833009F457C0843009F07BC24C81E1
:102650006B818A810E9419309D839CC2873009F466
:1026600071C208F06FC20E94AF2F6EC2803109F4B0
:10267000B9C08E010F5F1F4F813160F48D3009F4B6
:1026800054C008F450C08E3009F453C08F3009F4A0
:102690007BC058C2823109F4ABC008F4A6C08331B4
:1026A00009F4D0C08E3F09F473C14CC28A818230D4
:1026B00009F469C2833051F0813009F043C20E94AD
:1026C000332E9B838C837D836E833EC280912A054B
:1026D00090912B05892B09F437C2FE013396CE0168
:1026E0000B96ACA9BDA92D91BDABACAB2193E8175E
:1026F000F907B9F729C28A81823009F023C26B81B8
:102700007C818D819E810E94B6340E9447301CC21C
:102710002D813E813227232732274C816B818A818C
:102720000E94F22F11C280E161C082E08A8389E5B4
:10273000F1C1EA80FB80FE24EF24FE24AC80B12CA2
:10274000BDE1AB16B10408F0FFC16801C7018955AE
:102750009E4F9601201B310B2A153B0508F0F4C152
:10276000E9E5EE16E2E0FE0630F40E940D34D601F3
:1027700014968C9302C0F6011482FFEFEF1AFF0A41
:102780002FEFC21AD20AE2CF80912A0590912B0531
:10279000892B09F4D9C1EA80FB80FE24EF24FE24B2
:1027A000CC80D12C3DE1C316D10408F0CDC1580135
:1027B000C70189559E4F9501201B310B2C153D05F6
:1027C00008F0C2C1A9E5EA16A2E0FA0620F4F50174
:1027D00064810E941B34FFEFEF1AFF0A2FEFA21A49
:1027E000B20AE6CF0E94822FAFC184E08A83ACC1D7
:1027F000EA80FB80FE24EF24FE24AC80B12C3DE176
:10280000A316B10408F0A0C16801C701879696011C
:10281000201B310B2A153B0508F096C1A0E8EA16EB
:10282000A1E0FA0628F40E940D34F601848303C067
:10283000D60114961C92BFEFEB1AFB0AEFEFCE1AEB
:10284000DE0AE3CFEA80FB80FE24EF24FE24AC8086
:10285000B12CFDE1AF16B10408F076C1370127E2D3
:10286000620E711C30E8E31631E0F30608F06CC12B
:1028700080E891E08E199F098A159B0508F464C1D0
:1028800080912A0590912B05892B11F0680160C079
:10289000E0FE0FC0C70186960E940D3490E0982F8D
:1028A00088272D81822B81159C4531F48FEF8D83F4
:1028B00003C0C12CD12C03C0CC24C394D12CC5019E
:1028C0008E0D9F1D450180FF1BC0B1E08B1A910842
:1028D00055E0452E512C4C0E5D1E480C591CC30171
:1028E0008A0D9B1D0E940D34F201208130E0322FB1
:1028F0002227282B21153C4519F48FEFD2018C9308
:10290000F801EC0DFD1D2FEFCF01801B910B8815F9
:10291000990508F0BBCF848190E0982F88273581F6
:10292000832B81159C4511F4248325833296ECCFAB
:10293000E0E8EE16E1E0FE0628F4D60114966C916C
:102940000E941B34BFEFEB1AFB0AEFEFCE1ADE0A30
:10295000C70187969601201B310B2A153B0540F3D2
:10296000F3C080912A0590912B05892B09F4ECC0C6
:10297000CE0101960E94DE27FFEF21EE34E0F150F8
:1029800020403040E1F700C000000E94D12DDCC0A3
:10299000EA818E2F90E08E30910508F0D5C0FC01C1
:1029A000EA5AFF4F0C94B03488E0E6E3F1E0DE0130
:1029B000919601900D928A95E1F780E2D8011D92DF
:1029C0008A95E9F785E0898388E0FE01B196DE010A
:1029D000159601900D928A95E1F7B6C084E8898337
:1029E00081E08A831B821C82AFC08C8190E0982F8B
:1029F00088272B81820F911D092E000CAA0BBB0B7F
:102A000035E0880F991FAA1FBB1F3A95D1F7AC017B
:102A1000BD01405E5F4F6F4F7F4F481759076A07F0
:102A20007B0708F491C08438E1E09E07A105B10559
:102A300008F08AC04538F1E05F076105710520F0B4
:102A400044E851E060E070E0481B590BBC016E5A4D
:102A50007E4FC8010E94043477C040E250E06FEF1F
:102A600070E0C8010E94F53480912A058983EA82CA
:102A70001B821C8284E08D831E8266C030922F05EB
:102A800020922E0582E390E090932B0280932A02FD
:102A90000E943F2E909329028093280255C0EF2870
:102AA00089F110912C0280913002182311708091CD
:102AB0002802909129020E94242E85369105E0F08B
:102AC0001123D1F00E943F2E909329028093280277
:102AD00080912A0290912B02019790932B02809370
:102AE0002A02892B79F410922F0510922E0530922C
:102AF0002B0520922A0506C082E390E090932B02DA
:102B000080932A0280912A05898380912E058A83E9
:102B100080912A028B8318C010922B0510922A05EF
:102B200013C040E250E06FEF70E0C8010E94F5343E
:102B30000BC08B81811108C080E2D8011D928A955B
:102B4000E9F702C08FEF8983CE0101960E94DE274C
:102B5000B3C909BD19BD09B400FEFDCF8091D800ED
:102B60008F7D8093D8008091E00082608093E000A8
:102B70008091E00081FDFCCF1092EF020E947B2447
:102B8000A2C91BAA58CA86E290E00E940D341B829B
:102B90001C821D828E83D8CF1092EF020E947B246C
:102BA0002FEF84E39CE0215080409040E1F700C08B
:102BB00000009AE088E10FB6F894A8958093600031
:102BC0000FBE90936000FFCF982F92959F7019F0E1
:102BD000892F24E001C020E0982F9695969511F05A
:102BE0002E5F892F982F969509F02F5F822F0895D9
:102BF0009C013A9521153F4130F5BC016627727062
:102C0000AC01442754709C012227387094FF0FC0F8
:102C100090FF02C080E101C080E0672B09F0806274
:102C2000452B09F08064232B79F080680895892F63
:102C30008170672B09F08260452B09F08460232B9B
:102C400019F08860089580E008958091FA018F312D
:102C5000B0F48091350290E0019665E070E00E944A
:102C60005B349C018093350284E090E0821B930BDF
:102C7000982F8827990F8A52974F0E94712680912A
:102C8000FA018F51893020F486ED96E00E9471267A
:102C90008091FA018832A0F02091340230E02F5F59
:102CA0003F4F217033272093340281E090E0821B54
:102CB000930B982F8827990F8A529D4F0E94712657
:102CC0000895A9E0B0E0E7E6F6E10C94D133FC0109
:102CD0008081918123813481232B31F09F3F31F416
:102CE00091E08F3F19F403C091E001C090E090FDA6
:102CF00033C46F0185E0DE01119601900D928A9533
:102D0000E1F7F601228189819A81222349F00E940C
:102D1000F021182F682F89819A810E94062403C010
:102D20000E94D223182F69817A81812F0E94922FCD
:102D30008C01F6018281882399F1C8019056811592
:102D4000F0E29F0748F0905E811520E1920720F0A5
:102D5000915C81159F4118F4C801992708C00F3F65
:102D6000110509F010F4C80102C080E090E09C0158
:102D7000245031092432310518F08B970E9780F4D6
:102D8000E091B901F0E0EE0FFF1FE254FE4F8081A9
:102D900091818F3F2FE7920719F0019691838083ED
:102DA000F6018281882309F4C8C3980122513F4566
:102DB0002031310508F0B4C08FEF93E00E940D344C
:102DC0008111B7C02EEEF22EF00E07EA11E0FF20BF
:102DD00071F00115F4E01F0709F4ABC0C8010E94AF
:102DE0000D34811101C0FA940F5F1F4FF0CF1E8286
:102DF0001F8218861986AA24AA9478012FEFE21A56
:102E0000F20AC8010E940D348E831F82882309F4C0
:102E100090C0813009F07FC0480182E0880E911C8B
:102E2000C7010E940D34B82E8F83882309F481C016
:102E30008FEF8B0D833060F4780193E0E90EF11C85
:102E4000C4010E940D348887811165C08701D5CFE8
:102E50008BEF8B0D833090F53801E3E06E0E711C23
:102E6000C4010E940D348887811102C07301EECF26
:102E70007801F4E0EF0EF11CC3010E940D34898744
:102E8000882321F38885998581302FEF920718F0E8
:102E9000182F00E001C08C0186E0B81639F097E0E9
:102EA000B91641F0C8010E94CE3004C0C8010E948A
:102EB000CE30CCCFC8010E949430C8CFE4E0BE161B
:102EC00011F07401C3CFC4010E940D34B82E7801F3
:102ED000F4E0EF0EF11CC80103960E940D34BB20F4
:102EE00041F1882331F1282F30E021503109A29E91
:102EF000A001A39E500D11248B2D90E00197840F0B
:102F0000951F019708F4A2CFEFE9FFE03197F1F7A1
:102F100000C00000F6CFCE0106960E94F12696CFA3
:102F20000031FFE51F07B9F481E00E946A240E9486
:102F3000E5268091EE02877009F40EC3F6018281C6
:102F4000882309F409C38091450582FF05C382E007
:102F50000E944D2401C301312FE5120711F482E0D4
:102F6000E4CF033F9CE5190799F406E221EE40EE19
:102F700063EF7CE509C0073D9CE5190711F506E202
:102F800021EE41EE67ED7CE5C6010E94D92ED1CF3E
:102F9000043FECE51E0708F052C0083DFCE51F07A2
:102FA00031F407E225EE45EE68ED7CE5EDCF093D15
:102FB0002CE5120701F708E221E045EE69ED7CE51A
:102FC000E3CF882309F45AC0109238050A352DE55D
:102FD000120779F158F401159CE5190781F00E3DAF
:102FE0001C4509F04BC00E94F21E19C00C35FDE5CE
:102FF0001F07B9F000F1073A1D4589F03FC0109254
:10300000EF020E947B249FEFE4E3FCE09150E0405C
:10301000F040E1F700C000000E94D12D8ACF0E944D
:10302000CC158091450582FB882780F991E089279E
:1030300003C081E001C080E00E946F1F1FC0053FF8
:10304000ECE51E0731F406E221EE42EE65EF7CE589
:103050009BCF053FFCE51F0730F407E225EE44EE69
:1030600064EF7CE591CF063F2CE5120709F0A9CF6C
:1030700007E225EE46EE66EF7CE586CFF60182811B
:1030800000811181882349F0C8010E94F021F82EA7
:10309000682FC8010E94062404C0C8010E94D223E0
:1030A000F82EB8018F2D0E94922F0E946B1DE82EE2
:1030B000192FA82EF601F280058102950F708091DC
:1030C000EE028770B9F0FF20A9F0892F807F80344D
:1030D00021F080E28E0D883068F08091450582FFF6
:1030E00009C082E00E944D248091EE028770BB24CB
:1030F000B3948111B12C912E92949FE09922892D45
:1031000090E08C30910508F0F8C1FC01EC59FF4FBC
:103110000C94B034812F807F1F70882311F012959A
:10312000107FFF20B9F0112309F4D4C180E28E0D85
:10313000883010F0A11006C08091EF02182B109378
:10314000EF0205C080917702182B109377020E943E
:103150008B1FC0C18E2D0E94B524112309F4CDC14F
:1031600080E28E0D883088F1AA2079F11095809147
:1031700077021823109377022BC0812F807F1F7056
:10318000803211F01295107F8E2DAA2029F0F1E0E7
:10319000AF1609F466C06FC08091450582FD1BC063
:1031A000FF2069F0112339F08091EF02182B109362
:1031B000EF020E948B1F80E00E94E1249EC180E00C
:1031C0000E94B524112309F498C1812F0E94681F21
:1031D0000E948B1F92C1FF2031F1002301F10130C9
:1031E00079F480917A02182B181709F486C10E948D
:1031F0003F2E909379028093780210937A027DC1DA
:10320000053069F40E945D1F90913602812F892B51
:10321000891380933602812F0E94AB246EC1809166
:103220007A02812BF9CF0023B1F0013089F480912B
:10323000EF02812309F461C10E945D1F9091360263
:10324000812F80958923891741F08093360205C02C
:10325000053009F452C10E945D1F812F0E94A424F1
:103260004CC1FF2021F0063008F047C1D4CF053013
:1032700008F043C1F2CFFF2049F0002361F2F601CC
:10328000858180FF27C18F708583C5CF002329F3F7
:10329000893309F02FC1FFEF27EE83E0F150204082
:1032A0008040E1F725C1812F86958695837019F0BE
:1032B000813061F022C1FF2021F08E2D912F93707B
:1032C00002C080E090E00E94B22E1DC1FF2021F0DC
:1032D0008E2D912F937002C080E090E00E949C2E72
:1032E00012C1812F8370A9F5F1100BC14E2D4295AB
:1032F00046954770440F440F8E2D8F7090E09C01CF
:10330000042E01C0220F0A94EAF7E4FE08C08FE001
:1033100090E001C0880F4A95EAF7809501C080E0EF
:10332000169516951370123069F088F490917B020F
:10333000113019F0822B892302C0922B892B0E9415
:103340007624DFC0822B90917B028927F8CF822BD5
:10335000F6CFFF2019F0812F817001C08695882358
:1033600009F4CFC04E2D429546954770440F440F47
:103370008E2D8F7090E09C01042E01C0220F0A94C4
:10338000EAF7E4FE08C08FE090E001C0880F4A959C
:10339000EAF7809501C080E01695169513701230FB
:1033A00059F078F490911E03113019F0822B892383
:1033B00009C0922B892B06C0822B90911E0389276E
:1033C00001C0822B0E943B249CC01F70FF2039F05B
:1033D000812F0E946A248E2D0E94AB2492C08E2DD4
:1033E0000E94A424812F0E9440248BC08E2D92EF36
:1033F000A91681F19A1538F0E0EFAE1659F0F1EF09
:10340000AF1609F162C023EFA21659F194EFA91685
:10341000B1F05BC0FF2079F0053008F06EC01F717D
:1034200081E090E0012E01C0880F0A94EAF79091A4
:103430001E03892721C0063008F05FC0F0CF8091BD
:10344000450582FD1CC0FF2039F0812F8F710E943D
:103450006A2453C0FF20C9F3812F8F710E9440243A
:103460004CC0FF2041F01F7181E0012E01C0880F88
:103470000A94EAF701C080E00E943B243EC0FF208E
:10348000B1F08091EE028770843039F40E94762189
:10349000812F8F710E9440244EC0053008F04BC030
:1034A0001F71812F0E946A2463E0812F07C00530BD
:1034B00040F00E94762164E0812F8F710E94A02548
:1034C0003AC081E00E944D2436C0FF2029F000233D
:1034D00009F4BBCF8E2D70CE002309F4BDCF893304
:1034E00049F4EFEFF7EE23E0E150F0402040E1F740
:1034F00000C000008E2D0E94B52488EF890D843015
:1035000010F40E94C82EBB2039F18091EE0280FD9C
:1035100023C0F60112828595859585950E946A24BF
:10352000C6010E9461168091EE028595859585956C
:103530000E94402411C0B12CE4CF00319FE519074F
:1035400011F481E006C00131EFE51E0709F009CD55
:1035500082E00E944024EBCC2996EEE00C94ED33FF
:10356000A7E1B0E0E6EBFAE10C94D8334B8B5C8B2F
:10357000162F6D8B7E8B8F8B611110927702DE017F
:103580001D9686E0FD0111928A95E9F785E0FE011E
:10359000739601900D928A95E1F7DB880C89EE888D
:1035A000FF888091450582FF26C00E943F2E209112
:1035B000EC023091ED02821B930B8838934140F06E
:1035C0008091EE0282FB992790F981E0892701C062
:1035D00080E080FF03C082E00E944D240E943F2EC5
:1035E0002091780230917902821B930B88389341A5
:1035F00010F00E945D1FDD860E871F87F98AE88A1A
:1036000086E0FE013D96DE01179601900D928A95A7
:10361000E1F7CE0107960E94632281113EC086E049
:10362000FE013796DE01119601900D928A95E1F721
:10363000FF81E8856A857B856115710531F0EF3F73
:1036400031F481E0FF3F19F403C081E001C080E064
:1036500080FD23C02091BA0230E0C9010196877035
:1036600099274091EB0250E08417950779F1F9838F
:10367000EA837D836C8396E0929FD001939FB00D87
:103680001124A554BD4FFE01319601900D929A95DB
:10369000E1F78093BA020E947D2116E08091EB024F
:1036A0009091BA02891709F1189FC001112485541D
:1036B0009D4F0E9463228823C1F08091EB0290E02D
:1036C0000196877099278093EB02E8CF1092EF0262
:1036D0000E947B241092BA021092EB02E4EBF2E01B
:1036E00086E0DF011D928A95E9F76796E7E00C9482
:1036F000F43380E008959091440592FF0DC0282F87
:103700002871283019F4877F846006C0282F24711F
:10371000243011F48B7F886093FF0DC0282F28710F
:10372000283119F4877E846106C0282F2471243142
:1037300011F48B7E88612091450520FF0DC0382F44
:103740003871383019F4877F816006C0382F3171A5
:10375000313011F48E7F886021FF0DC0282F287131
:10376000283119F4877E816106C0282F217121310B
:1037700011F48E7E886194FD877E0895A0E0B0E00C
:10378000E4ECFBE10C94D5337C015B016A01809190
:10379000A1028A3018F001E010E002C00AE010E057
:1037A000C1E0D0E0B501C701F6010995811115C04E
:1037B00021960C171D0794F0CC9F9001CD9F300DE2
:1037C000300D112480E090E045E34A95F1F70000C8
:1037D000019682179307C1F7E5CF81E0CDB7DEB739
:1037E000EAE00C94F133A1E0B0E0E9EFFBE10C94E6
:1037F000DB331091FA01198300919C0260919D02C4
:1038000070919E0280919F029091A0020E94082ECA
:10381000643671058105910510F4011719F1809145
:103820002E0190912F018D569D4F40912D0150E01A
:103830004115510511F041E050E0BE016F5F7F4F2F
:103840000E94EC3483E090E00E943E33882359F0DC
:103850000E94332E60939D0270939E0280939F027C
:103860009093A00281E02196E4E00C94F733EF926C
:10387000FF921F93CF93DF9300D000D01F92CDB75C
:10388000DEB77B0180E090E00E943E33882309F49C
:1038900056C04091180150E04115510511F041E02A
:1038A00050E06091190170911A016D567D4FCE0163
:1038B00005960E94EC3460918B0270918C0280918D
:1038C0008D0290918E020E94082E6436710581054A
:1038D000910538F484E992E00E949D279D81891723
:1038E00081F181E090E00E943E33182F882391F00F
:1038F0004091200150E04530510510F044E050E087
:1039000060912101709122016D567D4FCE0101968B
:103910000E94EC3484E992E00E949D2791E02D8181
:10392000281390E0192341F10E94332E60938B02FB
:1039300070938C0280938D0290938E020FC010E0E2
:1039400001C011E08091940290919502A09196029D
:10395000B091970289839A83AB83BC83112361F072
:1039600089819A81AB81BC81809387029093880280
:10397000A0938902B0938A02809187029091880275
:10398000A0918902B0918A02F70180839183A2837A
:10399000B383812F0F900F900F900F900F90DF91B6
:1039A000CF911F91FF90EF90089580918602811131
:1039B00018C08091D80080618093D8008AE18A95F0
:1039C000F1F700C08091D90080FD02C082E001C003
:1039D00081E080938602823021F40E949B2B10921A
:1039E0001D0381E090918602913009F080E00895F6
:1039F000A4E0B0E0EEEFFCE10C94DB3360918F02C9
:103A00007091900280919102909192020E94082EF2
:103A1000643671058105910508F441C00E94D51CEA
:103A2000882319F00E94332E0EC00E94332E00917D
:103A30009A0110919B0120919C0130919D01600F92
:103A4000711F821F931FDC01CB010296A11DB11DC6
:103A500089839A83AB83BC8380912601909127014F
:103A60008D569D4F4091250150E04530510510F095
:103A700044E050E0BE016F5F7F4F0E94EC3482E073
:103A800090E00E943E33882359F00E94332E6093C9
:103A90008F0270939002809391029093920281E042
:103AA0002496E4E00C94F733F894E82FE295EF7055
:103AB000F0E031A1282F2F7081E090E001C0880F45
:103AC0002A95EAF7982F9095932391A392A1892B99
:103AD00082A378940895CF93DF938238910569F19A
:103AE000B0F48133910509F477C048F48932910527
:103AF00009F469C08A32910509F473C092C0853314
:103B0000910509F45BC089339105B9F08AC0833E01
:103B1000910591F138F4803E9105D1F0823E9105F6
:103B200031F17FC0863E9105D9F1873E9105E9F1DB
:103B3000843E910509F075C028C02091440520FD00
:103B40005BC021FD59C02091450523FD61C069C0BE
:103B50008091440580FD4AC08091450580FF4CC09E
:103B60008091440584FD39C183EE90E038C1809195
:103B7000440582FF3EC0F4CF8091440582FD39C0E8
:103B80008091450580FD38C0EBCF8091450581FFD0
:103B900039C08091440584FD20C187EE90E01FC1AB
:103BA0008091440583FF2BC0F4CF8091440583FDB1
:103BB00026C08091450581FD25C0EBCF809144054D
:103BC00085FD26C022C08091440585FD1EC08091E0
:103BD000450583FF1DC00AC08091440586FD1BC0BA
:103BE0001DC08091440586FD19C015C089E390E091
:103BF000F6C082EE90E0F3C080EE90E0F0C086EE7A
:103C000090E0EDC084EE90E0EAC085E390E0E7C08C
:103C100089E290E0E4C08AE290E0E1C081E390E0D4
:103C2000DEC0811572E5970708F061C0811521E5B6
:103C3000920728F0982F8827816F906AD0C0883E1D
:103C4000910568F5803E910508F0C9C0883A910554
:103C5000B8F4853A910548F0855AE82FF0E0EB5A20
:103C6000FE4F808190E09064BAC08130910509F4E4
:103C7000B1C008F4B2C08430910508F4AEC0AFC042
:103C80008F3B910508F0A9C0885AE82FF0E0EE0FAD
:103C9000FF1FE85AFE4F808191819464A0C0811576
:103CA00030E59307B0F0482F4F704695469520E2D7
:103CB000429FA0011124837021E030E0B90102C0CD
:103CC000660F771F8A95E2F7CB019D68842B952BB1
:103CD00086C0811540E4940718F09F70906A7FC0F9
:103CE0009C013A9521153F4108F479C076C0EC015A
:103CF000811576E59707E8F5C11585E5D80748F001
:103D00008C2F0E947B1B8F7190E0982F88279062E8
:103D100066C0C11524E5D20728F09C2F8827846F40
:103D2000906A5DC0AE01437055272C2F26952695CD
:103D3000C115D34578F481E090E002C0880F991F47
:103D40004A95E2F770E2279F90011124822B932B72
:103D50009C6845C081E090E002C0880F991F4A9599
:103D6000E2F740E2249F90011124822B932B9A6862
:103D700036C081154AE59407F0F4811569E5960788
:103D800090F08C2F8F700E947B1B94E0D695C79586
:103D90009A95E1F7CF70D0E0DC2FCC27D069BE0137
:103DA000682BCB011CC081159845B8F09C2F882743
:103DB000806F906A14C090568115904270F48D2FD8
:103DC0008F710E947B1B282F2F71CE019927906243
:103DD000922B05C081E090E002C080E090E0DF918E
:103DE000CF91089568EE7EEF80E090E00E94393434
:103DF00060E082E090E00E941B3460E083E090E0AD
:103E00000E941B3410927B0260E084E090E00E94EC
:103E10001B3464E082E290E00E941B3460E085E0A5
:103E200090E00E941B3460E086E090E00E941B342A
:103E30006FEF87E090E00E941B3440E050E0BA0151
:103E400088E090E00E942D3460E08DE090E00E94D8
:103E50001B3440E050E0BA0188E190E00E942D342C
:103E600060E087E190E00E941B3440E050E0BA013E
:103E70008CE190E00E942D3460E070E080E290E000
:103E80000E94393440E050E0BA0188E190E00E949D
:103E90002D3480E00E944C300E946B3040E050E0B6
:103EA000BA018FE090E00E942D3440E050E0BA016A
:103EB00083E190E00E942D34089580917A02882356
:103EC00031F010927A0210927902109278020895DD
:103ED00080959091EF0289238093EF020895CF930C
:103EE000C0914505C2FB992790F9981791F080FB86
:103EF000C2F9C09345056091440584E090E00E94BA
:103F00001B346C2F82E290E00E941B3482E00E94FE
:103F10004D24CF9108959091EF0280917702892BE3
:103F20008093370280917A02882361F10E943F2EAC
:103F30002091780230917902821B930B883893414B
:103F400010F00E945D1F9091370280917A02892BB8
:103F50008093370280913501882331F080914405A8
:103F600087FF02C08EE101C086E0E9E3F2E090E065
:103F7000815028F021912223D9F39F5FF9CF91112D
:103F80000E945D1F40E250E067E572E087E392E047
:103F90000E94DF34892B21F180E2E7E3F2E0A7E51C
:103FA000B2E001900D928A95E1F7E0913B05F09126
:103FB0003C053097A9F080913501882359F0809114
:103FC000440587FF07C0809137028093380286E05E
:103FD000809337020280F381E02D87E392E0099518
:103FE0000895ACE0B0E0E7EFFFE10C94D033AE0110
:103FF0004F5F5F4F7A0188E0DA011D928A95E9F7F9
:1040000003E411E06A0187E4682E81E0782EAA2497
:10401000A394B12C2DE4822E21E0922EF801808110
:104020008F3F09F440C0F894E82FE295EF70F0E07C
:1040300021A18F70A50102C0440F551F8A95E2F798
:10404000CA01922F982B91A392A18095892382A3D4
:10405000789400C0E7E4F1E0512C31E021912F3F4A
:1040600089F0A22FA295AF70B0E090968C9190E06D
:104070002F7002C0959587952A95E2F780FD02C0C2
:10408000832F01C080E0582A330F8E169F0631F728
:10409000D8018C918F3F11F00E94541DB0EABA955F
:1040A000F1F7F60150820F5F1F4FFFEFCF1ADF0AC3
:1040B0006016710609F0B2CF48E050E0B7018EE912
:1040C00091E00E94DF34009741F028E0F701AEE96B
:1040D000B1E001900D922A95E1F70091A701892B9B
:1040E00049F081E080937E020E943F2E90937D02F2
:1040F00080937C0280917E02811102C0F12C22C04B
:1041000080917C0290917D020E94242E0597B0F34D
:1041100010E0045D1D4F44E050E06EE971E0C8011D
:104120000E94DF34892B59F084E0EEE9F1E0D801F8
:1041300001900D928A95E1F7FF24F39401C0F12CD0
:1041400010927E020E94D51CE091A701882309F4F9
:1041500077C019861A861B861C860E2F10E0045D18
:104160001D4F8091A1028A3058F447E35CE1BE0103
:10417000675F7F4FC8010E94BE1B882399F10AC068
:1041800080917F02909180020E94242E843F914072
:1041900060F739C048EF5CE1BE01675F7F4FC8013F
:1041A0000E94BE1B8823F1F043EF5BE1BE01675F15
:1041B0007F4FC8010E94BE1B8823A1F01092A1026C
:1041C0008091A60190E044E050E0BE01675F7F4F20
:1041D000845D9D4F0E94DF3421E020938502892B6E
:1041E00001F571C08091A1028F3F19F08F5F80931C
:1041F000A1028091A1028A3018F30E943F2E909371
:10420000800280937F0280918502882309F45BC03D
:10421000FE01399684E0DF011D928A95E9F710923C
:104220008502E091A601F0E0E45DFD4F89859A8565
:10423000AB85BC8580839183A283B38381E044C036
:10424000F0E0E45DFD4F84E0A4E9B2E001900D925E
:104250008A95E1F784E992E00E949D27809393027A
:104260008090980290909902A0909A02B0909B0240
:104270008091810290918202A0918302B091840288
:1042800088169906AA06BB06D1F080928102909208
:104290008202A0928302B09284020E94D51C8111F6
:1042A0000EC00E94332E861A970AA80AB90A809275
:1042B0009A0190929B01A0929C01B0929D018091E5
:1042C0009C028093FA0180E08F292C96EFE00C94F9
:1042D000EC3380E090E00E94B22E80E090E00E94FB
:1042E0009C2E109277020E948B1F08951092EE026E
:1042F0001092ED021092EC0208958091EB029091E1
:10430000BA02891719F08F5F8770FBCF08950F935A
:104310001F93CF93DF938091B90282958F7009F03C
:104320005AC08091B602882309F455C08091EB02EF
:104330001091BA026091B4027091B502C091B702B7
:10434000D091B80291E06F3F09F090E0292F06E08C
:10435000811709F440C0209721F07F3F21F030E021
:1043600003C031E001C0322F90E030FD31C0089F22
:10437000F001099FF00D1124DF01A554BD4F1196E6
:104380003C911197371324C03C91361321C01296EB
:104390003C91129731111CC013964D915C9114976A
:1043A0004C1B5D0B4436510598F48091B9028F7017
:1043B00080618093B902E054FD4F80818F708061ED
:1043C000808384EB92E00E9461160E947D2103C0ED
:1043D00001968770BDCFDF91CF911F910F91089506
:1043E000CF92DF92FF920F931F93CF93DF936C01D5
:1043F00000911E0380917B02082BC7E0D0E010E003
:10440000C8010C2E02C0959587950A94E2F780FDAD
:1044100004C02197A8F7F12C09C0FC2EB6018C2FFF
:104420000E94922F0E946B1D019799F38F2DDF91AF
:10443000CF911F910F91FF90DF90CF900895CF9370
:10444000DF93EC010E94F021BE010E94922F0E9496
:104450006B1DDF91CF910895CF93FC0180819181F5
:1044600023813481232B31F09F3F31F491E08F3F42
:1044700019F403C091E001C090E0C92FC17090FD14
:104480001CC0808191810E941F2292959F7096305E
:1044900079F010F4925001C09A50923088F4803F25
:1044A00071F018F4883E60F40AC0843F49F407C0F4
:1044B000883E28F0813F21F402C0C0E001C0C1E085
:1044C0008C2FCF910895A1E1B0E0E9E6F2E20C94DF
:1044D000D4338C0185E0F801DE011D9601900D9228
:1044E0008A95E1F7F801E2809091B4026091B502FB
:1044F0004091B7025091B8024115510531F06F3F1C
:1045000031F481E09F3F19F403C081E001C080E0F5
:10451000F82FF1709F2E80FD03C1F80130812181B9
:10452000C380D48084EBA82E82E0B82EF090B6022F
:10453000F601E41BF50BFF2009F4CBC08091B90212
:10454000E436F10508F096C0482F407F09F051C0CD
:10455000621311C093130FC0FE2CE1100CC08F70BA
:1045600080618093B902C5010E9461168091B902F1
:10457000F801858312C1C114D10431F02F3F31F409
:1045800081E03F3F19F403C081E001C080E080FD7D
:1045900003C081E08E2502C080E090E0F82FF1702A
:1045A000FF2E80FF1CC08091EB024091BA0256E0C2
:1045B000841709F4D0C090E0589FF001599FF00D86
:1045C0001124E554FD4F6181261306C060816313F9
:1045D00003C06281E61203C001968770E9CFFE2C0A
:1045E000EE2009F4DAC08091B90281608093B902AB
:1045F0004DC062130AC0931308C0E11006C0F80151
:104600008583C8010E9461166EC0C8010E942C22D9
:10461000882351F1EE2041F12091B902822F829539
:104620008F7090E0029774F08091B4029091B5027F
:1046300098878F831986DB86CA862C87CE010796DA
:104640000E94611686E0F801A4EBB2E001900D92A1
:104650008A95E1F70E9487210AC06217C9F0C80154
:104660000E942C2281111EC0C8010E946116FF24E5
:10467000F39493C0482F407F81F784EB92E00E942F
:10468000611686E0F50111928A95E9F7F12C85C053
:104690009313E5CFE110E3CFF8018583C8010E94B1
:1046A000611638C0EE2001F32091B902822F829565
:1046B0008F7090E0029734F28091B4029091B5022D
:1046C0009A8389831B82DD82CC822E83CE01019660
:1046D000B7CFE436F105F0F4FE2CEE2029F2621398
:1046E0000BC0931309C086E0F801A4EBB2E001907F
:1046F0000D928A95E1F751C0C8010E942C228111C8
:10470000A1CF8091B90281608093B902C8010E9453
:10471000611643C086E0F50111928A95E9F73DC024
:10472000EE2009F4A1CFC8010E942C22F82E882384
:1047300009F49ACF86E0F801A4EBB2E001900D9263
:104740008A95E1F78091B4029091B5020E941F22F0
:104750000E94872122C03D872E878D859E850E94DD
:104760001F22292F22952F70223028F49F7039F0B4
:10477000811105C00BC0243028F49F7049F4805E7D
:10478000883020F0C8010E9461169F2CF92C05C0CA
:10479000F8019581907F99F7F9CF8F2D6196EBE025
:1047A0000C94F033292F983078F5863068F590E036
:1047B00036E0239F800D911D1124682F677023E040
:1047C000969587952A95E1F7FC01EE0FFF1FE80FFC
:1047D000F91FEE55FD4F40E050E080E0219130E0C0
:1047E000062E02C0369527950A94E2F721703327EA
:1047F000042E01C0220F0A94EAF7822B4F5F5F4F0D
:104800004330510559F7089580E00895292F9830D5
:1048100088F5863078F590E036E0239F800D911D75
:104820001124282F277051E001C0550F2A95EAF76F
:1048300023E0969587952A95E1F7FC01EE0FFF1F7F
:10484000E80FF91FEE55FD4F20E030E070E04081A9
:10485000CB01022E02C0969587950A94E2F78170EB
:10486000819584278523842781932F5F3F4F2330B1
:10487000310569F7089580931E030E946921089508
:1048800021E030E001C0220F8A95EAF7209580915F
:104890001E0382230E943B2408952091EE028095FE
:1048A00082238093EE02982F977099F430E0482F7E
:1048B000082E000C550B2417350759F0909145052B
:1048C00092FF07C08595859585950E9440240E949A
:1048D0007621089521E030E001C0220F8A95EAF7A1
:1048E00080911E03822B0E943B24089580937B02BB
:1048F0000E946921089580913501882331F08091CB
:10490000440587FF02C08EE101C086E0E9E3F2E0E2
:10491000DF011D928A95E9F70E9469210895882395
:1049200041F08095909177028923809377020E94CD
:104930008B1F0895882339F090917702892B8093FB
:1049400077020E948B1F0895882321F00E94681F20
:104950000E948B1F0895882339F09091EF02892BD4
:104960008093EF020E948B1F0895882349F1682FDE
:104970008CEF860F813A28F487E392E00E94742E30
:104980000CC080E2860F883058F4677081E001C067
:10499000880F6A95EAF70E94681F0E948B1F08958E
:1049A0008BE5860F833028F480E090E00E94B22EE1
:1049B0000895685A673120F480E090E00E949C2EB0
:1049C0000895CF93882309F49AC0C82F8CEF8C0FD9
:1049D000813A08F05EC0809135018823E1F0809132
:1049E000440587FF18C0EC2FE695E695E695F0E0C4
:1049F000E95CFD4F8281282F30E04C2F477081E029
:104A000090E002C0880F991F4A95E2F78223932312
:104A1000892B59F411C0E9E3F2E08191C81729F01C
:104A200082E0EF33F807C9F707C06C2F87E392E005
:104A30000E94742E0E948B1F809135018823C9F03B
:104A40008091440587FF15C0AC2FA695A695A69525
:104A5000B0E0A95CBD4FC77081E090E001C0880F55
:104A6000CA95EAF712969C911297892B12968C930D
:104A700020C0A9E3B2E0EFEF80E09D91C917C9F033
:104A8000EF3F19F4911101C0E82F8F5F8630A9F72D
:104A90002DC080E28C0F883078F4C77081E090E000
:104AA00001C0880FCA95EAF79091EF02892B809395
:104AB000EF020E948B1F23C0EBE5EC0FE33040F4C4
:104AC000F0E0EB5AFE4F808190E00E94B22E17C0BA
:104AD000C85AC731A0F4EC2FF0E0EE0FFF1FE85AE0
:104AE000FE4F808191810E949C2E09C0EF3F09F307
:104AF0000E2E000CFF0BE95CFD4FC283DACFCF9185
:104B000008951F93CF93DF93182F893319F0C0E0D6
:104B1000D0E002C0C0E5D0E0812F0E94E1242097C0
:104B200041F08FE99FE00197F1F700C00000219765
:104B3000F6CF812F0E94B524DF91CF911F91089568
:104B40009091450592FF10C098E0899F9001112433
:104B5000262B2093EE020E946A240E943F2E9093FF
:104B6000ED028093EC0208950E946A240895CF9389
:104B7000DF93C0912805D09129058A30B1F42091A6
:104B80001F03CE0182529340622F70E00E94B9331E
:104B9000281B822F66E00E944F34C82FC15008F4B2
:104BA0008FC080E20E94B725F9CF8D30E9F4C25260
:104BB000D34020911F03622F70E0CE010E94B933D1
:104BC000281B822F9E01280F311D2115324018F01D
:104BD00080E0C0E0D0E0C80FD11DCE5DDC4FD093A7
:104BE0002905C09328056CC096E0FE01A2E2B5E05D
:104BF00001900D929A95E1F7803E30F086E0FE013B
:104C000011928A95E9F70BC0F6E08F9FB00111244D
:104C10006C5F7A4E46E050E0CE010E940434C091B1
:104C20002805D091290546E050E0BE0182E295E0DA
:104C30000E94DF34892B49F19E0122523340A901A1
:104C400085E0569547958A95E1F781E090E0BC01B3
:104C500002C0660F771F4A95E2F7409120035091FA
:104C60002103462B572B2B5F3F4F65E03695279549
:104C70006A95E1F702C0880F991F2A95E2F7842B05
:104C8000952B90932103809320039E012C51334058
:104C900040911F03642F70E0C9010E94B933481B83
:104CA000463010F4240F311D211582E0380710F032
:104CB00020E030E02E5D3C4F3093290520932805FD
:104CC000DF91CF910895CF93DF93EC01FE018491A2
:104CD000882321F00E94B7252196F8CFDF91CF914C
:104CE0000895EF92FF920F931F93CF93DF9320913C
:104CF00028053091290522523340A9015E5F4130D9
:104D0000524028F040E052E0421B530B02C040E00A
:104D100052E0C0912003D0912103D901AE5DBC4F78
:104D2000B901420F531F01E010E064177507E8F462
:104D3000FB01E21BF30BE80FF91FE491FC91EF1765
:104D400081F0EC93FB01689414F8F695E7951694BE
:104D5000E1F7780102C0EE0CFF1CEA95E2F7CE29DC
:104D6000DF296F5F7F4F1196E0CFD0932103C0936F
:104D70002003CDB7DEB7E6E00C94F533EF92FF9257
:104D80000F931F93CF93DF93EC017B0164E670E0F8
:104D900088E70E940F318C01EC0EFD1ECE15DF0559
:104DA00061F017FD0AC0FE01849164E670E00E9484
:104DB00082318C012196892B89F30E94F931C80137
:104DC000CDB7DEB7E6E00C94F53380911E03982F43
:104DD0009670963011F4886001C0877F0E943B2452
:104DE0000895A0E0B0E0E7EFF6E20C94D533EC01D3
:104DF0008AE0A82E2881222309F49AC0213009F0E4
:104E000041C08981813039F48E010E5F1F4F8A8144
:104E10000E94812508C0823041F48E010E5F1F4F31
:104E20008A810E94E124E80181C0833039F48E0137
:104E30000E5F1F4F8A810E94B524F5CF843011F098
:104E4000219674C02A81229680E090E030E02053C1
:104E500031092A30310558F4A89EA001A99E500DB1
:104E60001124C901840F951F21962881EFCF009747
:104E700009F45CC0EFE9FFE03197F1F700C00000F2
:104E80000197F5CFE22FF0E0EC57FB4EB490822F64
:104E900086958695869590E0FC01EC58FB4EE49053
:104EA0002770F12C022E02C0F594E7940A94E2F7E1
:104EB000F1E0EF22FF24FC01EC59FB4EC490D12C11
:104EC000022E02C0D594C7940A94E2F731E0C322BF
:104ED000DD24FC01EC5AFB4E049110E002C0159554
:104EE00007952A95E2F701701127E114F10419F0F2
:104EF00081EE0E94E124C114D10419F086EE0E94D3
:104F0000E1248B2D0E948125C114D10419F086EE75
:104F10000E94B524E114F10419F081EE0E94B52439
:104F20000115110519F08CE20E948125219662CFAE
:104F3000CDB7DEB7EAE00C94F133FC01AC014C5F75
:104F40005F4F8FEF91E32191822728E030E087FFC8
:104F500003C0880F892701C0880F21503109B9F794
:104F6000E417F50781F70895EF92FF920F931F93CF
:104F7000CF93DF937C018B010E94BA2B811119C062
:104F8000E70101151105A1F08091E80085FD0AC037
:104F90008091E8008E778093E8000E94BA2B8823E6
:104FA00081F307C089918093F10001501109E9CF85
:104FB00080E0CDB7DEB7E6E00C94F533CF932091D7
:104FC0001D032430F9F4C091E900CF703091EC005A
:104FD000232F217030FD20E8C22B22E02093E9002E
:104FE0002091E80020FF0BC040E050E060E270E05C
:104FF0000E94B4278091E8008E778093E800CF70FC
:10500000C093E900CF910895AAE2B0E0EAE0F8E2A7
:105010000C94DC33E5E1F3E08DE193E02091F100C5
:1050200021938E179F07D1F780911603833009F4DF
:1050300063C030F4813071F0823009F49FC0B6C093
:105040008A3009F48BC08B3009F46EC0893009F0C6
:10505000ADC020C080911503813A09F0A7C08091AE
:10506000E800877F8093E8008091190390911A03EC
:10507000892B21F460E282EF92E003C060E080E0DF
:1050800090E070E00E94732D8091E8008B77809310
:10509000E8008CC080911503813209F087C08091AF
:1050A000190390911A03009719F0029709F07EC036
:1050B0008091E800877F8093E8008091E80082FD7E
:1050C00005C080911D038111F8CF70C02091F300BD
:1050D0008091F20090E0922B029731F48091F100E0
:1050E000813011F0863021F48091F1008093F1023B
:1050F0008091E8008B7756C080911503813A09F0C2
:1051000055C08091190390911A03892B09F04EC064
:105110008091E800877F8093E8008091E80080FF1D
:10512000FCCF8091350139C0809115038132F1F5B2
:105130008091190390911A03892BC1F58091E800A1
:10514000877F8093E8000E94ED2B80911703809366
:1051500035011092EF020E947B2428C08091150334
:10516000813221F58091E800877F8093E8000E94DA
:10517000ED2B809118038093F00218C080911503E5
:10518000813AA1F48091E800877F8093E8008091C4
:10519000E80080FFFCCF8091F0028093F1008091C5
:1051A000E8008E778093E8000E94ED2B8091E80064
:1051B00083FFEBC18091150390911603492F50E0B6
:1051C0004A30510508F0E1C1FA01E059FF4F0C9453
:1051D000B034803821F0823809F0D7C108C08091FE
:1051E000120390911303992389F082600FC080917C
:1051F00019038F70873008F0C8C18093E90080914F
:10520000EB0085FB882780F91092E9009091E80077
:10521000977F9093E8008093F1001092F1007CC199
:10522000282F2D7F09F0B1C1882319F0823061F059
:10523000ACC180911703813009F0A7C1933009F008
:1052400080E0809313032EC08091170381112AC040
:10525000809119038F702FEF280F263008F095C129
:105260008093E9002091EB0020FF1CC0933021F4D3
:105270008091EB00806214C09091EB00906190935C
:10528000EB0021E030E0A90102C0440F551F8A95D0
:10529000E2F74093EA001092EA008091EB00886008
:1052A0008093EB001092E9008091E800877F809363
:1052B000E8000E94ED2B69C1811167C110911703AD
:1052C0001F778091E3008078812B8093E3008091A9
:1052D000E800877F8093E8000E94ED2B8091E80032
:1052E00080FFFCCF8091E30080688093E300111180
:1052F00002C082E001C083E080931D0346C1805854
:10530000823008F042C120911703309118032C3DE0
:1053100053E0350779F583E08A838AE289834FB7C2
:10532000F894DE01139620E03EE051E2E32FF0E036
:1053300050935700E49120FF03C0E295EF703F5F68
:10534000EF708E2F90E0EA3010F0C79601C0C09643
:105350008D939D932F5F243149F74FBF8091E800D3
:10536000877F8093E8006AE270E0CE0101960E9498
:10537000732DC0C08091190390911A03432F5527B4
:1053800043305105B1F068F44130510509F40CC1C6
:105390004230510509F0F9C08BE590E0E5EAF3E110
:1053A00057C04132510589F14232510509F43CC0E0
:1053B000ECC0C901992781309105B9F070F08230B5
:1053C0009105D9F0039709F0E0C0E2E1F4E1E4913E
:1053D0008E2F90E0E2E1F4E138C0E0E5F4E1E49101
:1053E0008E2F90E0E0E5F4E130C0EEE3F4E1E491EB
:1053F0008E2F90E0EEE3F4E128C0E0E3F4E1E491E5
:105400008E2F90E0E0E3F4E120C08330910508F0B6
:10541000BCC0880F991FFC01EF56FE4F0190F08130
:10542000E02D89E090E014C08330910508F0ADC014
:10543000FC01EE0FFF1FE557FE4F0190F081E02DBC
:10544000DC01A857BE4F8C9190E0009709F49DC0F5
:105450002091E800277F2093E80020911B033091E2
:105460001C032817390708F4C90140E0009789F1A7
:1054700020911D03222309F43DC02530D9F120914C
:10548000E80023FD37C02091E80022FD2FC02091C5
:10549000E80020FFEBCF4091F3002091F20030E0D4
:1054A000342B009759F02830310540F44491409353
:1054B000F100319601972F5F3F4FF3CF41E0283045
:1054C000310509F040E02091E8002E772093E800B4
:1054D000CDCF4111CDCF0AC080911D03882351F05B
:1054E000853041F08091E80083FD04C08091E800A0
:1054F00082FFF2CF8091E8008B778093E80045C06F
:10550000803809F042C08091E800877F8093E800EE
:10551000809114038093F1008091E8008E77C7CECC
:10552000811133C080911703909118039927029736
:1055300064F58091E800877F8093E800109117035D
:10554000109314030E94ED2B111106C08091E3000B
:1055500087FD02C081E001C084E080931D0342E02A
:1055600061EC81E00E940C2C42E261EC84E00E943C
:105570000C2C42E261EC82E00E940C2C42E260ECD6
:1055800083E00E940C2C80911D038091E80083FF32
:1055900010C08091E800877F8093E8008091EB0045
:1055A00080628093EB0005C082E190E0E0E0F4E1EE
:1055B0004FCFAA96E3E00C94F833089508958091B4
:1055C000F10208958093460570934805609347055E
:1055D00080911D038430F9F48093E9008FEF90915E
:1055E000E800815095FD06C095ED9A95F1F7000011
:1055F0008111F5CF8091E80085FF0DC040E050E0BB
:1056000063E070E086E495E00E94B4278091E800B2
:105610008E778093E8000895BC0184E00E94E22A1E
:105620000895BC0183E00E94E22A0895CF93DF939E
:1056300020913501222339F02091440527FF03C032
:1056400060E224E002C068E021E02093E9002FEF4F
:105650003091E800215035FD06C035ED3A95F1F75F
:1056600000002111F5CF2091E80025FF1DC0EC01BD
:1056700080913501811105C040E050E068E070E0A4
:1056800003C070E040E050E0CE010E94B42780915A
:10569000E8008E778093E80080E2FE01A2EFB2E09E
:1056A00001900D928A95E1F7DF91CF9108951F92B5
:1056B0000F920FB60F9211242F933F934F935F9346
:1056C0006F937F938F939F93AF93BF93CF93DF930A
:1056D000EF93FF93C091E900CF708091EC00D82F39
:1056E000D17080FDD0E81092E9008091F000877FB2
:1056F0008093F00078940E9404281092E900809131
:10570000F00088608093F000CD2BCF70C093E9004B
:10571000FF91EF91DF91CF91BF91AF919F918F91C9
:105720007F916F915F914F913F912F910F900FBE9D
:105730000F901F901895E8EDF0E080818E7F8083B8
:105740001092E2001092DA001092E100A0EEB0E0B8
:105750008C9181608C9380818F77808319BCA7EDB9
:10576000B0E08C918E7F8C9380818F7E80831092AD
:10577000490508952091E4003091E50095E64091B7
:10578000EC00842F817040FF23C08091E80080FDF1
:105790001DC080911D03882399F0853099F0809178
:1057A000EB0085FD11C04091E4005091E500241705
:1057B000350729F3915011F09A01E1CF84E0089563
:1057C00082E0089583E0089581E0089580E00895DF
:1057D0004091E80042FFDDCF08958091150387FFD7
:1057E00011C08091E80082FD05C080911D038111E8
:1057F000F8CF11C08091E8008B770BC080911D031A
:10580000882349F08091E80080FFF8CF8091E8007C
:105810008E778093E8000895982F973068F59093DD
:10582000E900981739F07091EC002091ED0050914B
:10583000F00003C0242F762F50E021FD02C09F5FAF
:10584000ECCF3091EB003E7F3093EB003091ED00D8
:105850003D7F3093ED003091EB0031603093EB00F1
:105860007093EC002093ED005093F0002091EE0037
:1058700027FDE5CF80E008958F708093E90081E0F7
:105880000895A0E0B0E0E7E4FCE20C94D733C8ED63
:10589000D0E088818F7E8883E7EDF0E080818160B1
:1058A000808384E082BF81E08093490588818E7F78
:1058B000888302EE10E0F80110821092DA0081EE87
:1058C000C82ED12CF601108288818F778883888139
:1058D0008068888388818F7D888319BC10921D031E
:1058E00010921403109213031092120390EEE92EFB
:1058F000F12CF70180818B7F808388818160888390
:1059000042E060E080E00E940C2CF60180818E7FF6
:105910008083F801808181608083808188608083BA
:10592000F70180818E7F8083888180618883CDB7F5
:10593000DEB7E8E00C94F3331F920F920FB60F928C
:1059400011242F933F934F935F936F937F938F9384
:105950009F93AF93BF93EF93FF938091E10082FFFA
:1059600009C08091E20082FF05C08091E1008B7F39
:105970008093E1008091DA0080FF2AC08091D800F6
:1059800080FF26C08091DA008E7F8093DA008091BC
:10599000D90080FF18C080E189BD82E189BD09B4CA
:1059A00000FEFDCF81E080931D03809149058111A8
:1059B0000FC00E949B2B0E94412C8091E2008460CA
:1059C0008093E20005C019BC10921D031092490596
:1059D0008091E10080FF17C08091E20080FF13C03A
:1059E0008091E2008E7F8093E2008091E2008061EE
:1059F0008093E2008091D80080628093D80019BC27
:105A000085E080931D038091E10084FF30C0809188
:105A1000E20084FF2CC080E189BD82E189BD09B428
:105A200000FEFDCF8091D8008F7D8093D8008091BB
:105A3000E1008F7E8093E1008091E2008F7E809371
:105A4000E2008091E20081608093E2008091140383
:105A5000882311F084E007C08091E30087FD02C035
:105A600081E001C083E080931D0380911D0380913C
:105A7000E10083FF27C08091E20083FF23C0809173
:105A8000E100877F8093E10082E080931D03109204
:105A900014038091E1008E7F8093E1008091E20009
:105AA0008E7F8093E2008091E20080618093E2002B
:105AB00042E060E080E00E940C2C8091F000886061
:105AC0008093F000FF91EF91BF91AF919F918F91E3
:105AD0007F916F915F914F913F912F910F900FBEEA
