:100000000C94040E0C94210E0C94210E0C941931B6
:100010000C94210E0C94210E0C94210E0C94210EA4
:100020000C94210E0C94210E0C94DD220C94922140
:100030000C948C240C94210E0C94210E0C94210E03
:100040000C94210E0C94210E0C94210E0C94210E74
:100050000C94210E0C9423240C94210E0C94210E4C
:100060000C94210E0C94210E0C94210E0C94210E54
:100070000C94210E0C94210E0C94210E0C94210E44
:100080000C94210E0C94210E0C94210E0C94210E34
:100090000C94210E0C94210E0C94210E0C94210E24
:1000A0000C94210E0C94210E0C94210ED114EB14FF
:1000B000F214A815A8152A153B154E15901595157F
:1000C000A815A815A8159D15151915195019501919
:1000D00083197B1A7B1A7B1A9F19131A241A241A64
:1000E000B128D8288D2AD8288D2A242947298D2A55
:1000F000482A582A00DA0281FFD9F1DB20A4A62E73
:10010000AF00A0C000A1C800AED580A81FD300409A
:100110008D1420004241534520004C4F574552005A
:100120005241495345002020202020200A004C4104
:10013000594552002020202020200A00202057501E
:100140004D200A200A0020202020002020202020EE
:100150002000FD377A585A000004E6D6B446020063
:10016000210116000000742FE5A3E005C7015C5DC6
:10017000003D8889C65436C3174FE4E20F535D90A3
:1001800075DB08C965CE09CBAEF2FFD16E9644533C
:100190001750A9573CF31C36AD768D7A7A850BC97A
:1001A000433E38EE515A3E9C7DCEB4C813B9F1CFD0
:1001B0008867CEB8A9BF34EAE3499914A741D55757
:1001C0006A229C4F0765976DEDE65205C2760033B3
:1001D00060F788AF8348607DF4FD32CB5CB4A31335
:1001E0000FA779664A7A762F3B30DDCAA3AAFD6154
:1001F0007C0E3B1587C37683075D3BDD124776E5B2
:10020000A83D1F79BCA9EAD200281FB159F0128776
:100210008D588EB0E9D5FFF4E903A04E8AAB492B87
:1002200016A40CD6DB26072A60542BABFF81864828
:1002300010D3DE5CC6B9BB689DF8152AF17BB847C0
:10024000E73BB48E1DC999D80C800D5362FBA3A760
:10025000CA47DAC48DA5D400E4E0B68391325BFED0
:100260007CB952F711374FBEFCB3E328B7353810CD
:100270002A1B49CA110AF865AD63E9DB025F78A35E
:1002800096C6F1162682AA735DAB26F1710555F468
:10029000D70A2670CB8BE97F1031D1D48C8FFE74B6
:1002A000B9BAE044C24CBC510C2D33D5C383EC4DDC
:1002B000C6E7B18A91DCFD2D84C79284B72A1FE678
:1002C000A8020BE48425F3DCA34CFFF38400D5499A
:1002D000FD2D4E472EFA0001F802C80B0000C13573
:1002E000F8FFB1C467FB020000000004595A000087
:1002F00000000000000000000000000000000000FE
:1003000000000000000000000000000000000000ED
:1003100000000000000000000000000000000000DD
:10032000008080000000000080404020202020103D
:100330001010100804020101020C3040800000007F
:1003400000000000F8F8F8F80000000000808000CD
:10035000000000000000000000000000000000009D
:10036000000000000000000000000080808000000D
:10037000000000000000000000000000000000007D
:10038000000000000000000000000000000000006D
:100390000000000000000000000000000000001E3F
:1003A000E1000001010202818080000080800000E5
:1003B0000000000000000080003030000001010259
:1003C000040810204387070100B8BCBE9F5F5F4F41
:1003D0004C202020201010101008080808080404E1
:1003E00004040402020202010101010000000000F5
:1003F00000000000000000000000000000000000FD
:1004000000000000000000000000000000000000EC
:1004100000000000000000000000000000008070EC
:100420000C030000180605989984437C4141404024
:1004300020212212111111090808080804040808D3
:100440001010101010110F013D7CFCFCFCFCFC3C5A
:100450000C00000000000000000000000000000090
:10046000000000000000000000000000000000008C
:1004700000000000000000000000000000000080FC
:10048000808080804040404040202020202010106C
:1004900010101008080808080404040404020302E9
:1004A0000201010101010100000000000000000044
:1004B000000000000000000000000000000000003C
:1004C0000000000000000000000000010303000025
:1004D000000000000000000000000000000000001C
:1004E000000000000000000000000000000000000C
:1004F00000000000000000000000000000000000FC
:1005000000000000000000000000000000000000EB
:1005100000000000000000000000000000000000DB
:10052000008080000000000080404020202020103B
:100530001010100804020101020C3040800000007D
:1005400000000000000000000000000000000000AB
:10055000000000000000000000000000000000009B
:10056000000000000000000000000080808000000B
:10057000000000000000000000000000000000007B
:10058000000000000000000000000000000000006B
:100590000000000000000000000000000000001E3D
:1005A000E100000101020201000000008080000063
:1005B0000000000000000080003030000001E11A5F
:1005C00006093135018A7C000080808080404040EF
:1005D00040202020201010101008080808080404EB
:1005E00004040402020202010101010000000000F3
:1005F00000000000000000000000000000000000FB
:1006000000000000000000000000000000000000EA
:1006100000000000000000000000000000008070EA
:100620000C03000000000000000000000101004079
:10063000A021221211111109080808080404040459
:100640000404020202010101010000000000000098
:10065000000000000000000000000000000000009A
:10066000000000000000000000000000000000008A
:1006700000000000000000000000000000000080FA
:10068000808080804040404040202020202010106A
:100690001010100808080808040404040402037A6F
:1006A0007A7979797939310202040408080888884E
:1006B0008780000000000000000000000000000033
:1006C000000000000000000000000000000000002A
:1006D000000000000000000000000000000000001A
:1006E000000000000000000000000000000000000A
:1006F00000000000000000000000000000000000FA
:1007000000000000000000000000000000000000E9
:1007100000000000000000000000000000000000D9
:100720000080800000000000804040202020201039
:100730001010100804020101020C3040800000007B
:1007400000000000000000000000000000000000A9
:100750000000000000000000000000000000000099
:100760000000000000000000000000808080000009
:100770000000000000000000000000000000000079
:100780000000000000000000000000000000000069
:100790000000000000000000000000000000001E3B
:1007A000E1000001010202818080000080800000E1
:1007B0000000000000000080003030000001E11A5D
:1007C00006093135018A7C000080808080404040ED
:1007D00040202020201010101008080808080404E9
:1007E00004040402020202010101010000000000F1
:1007F00000000000000000000000000000000000F9
:1008000000000000000000000000000000000000E8
:1008100000000000000000000000000000008070E8
:100820000C030000180605989984C37C41414040A0
:1008300020212212111111090808080804040404D7
:100840000404020202010101010000000000000096
:100850000000000000000000000000000000000098
:100860000000000000000000000000000000000088
:1008700000000000000000000000000000000080F8
:100880008080808040404040402020202020101068
:1008900010101008080808080404040404020302E5
:1008A0000201010101010100000000000000000040
:1008B0000000000000000000000000000000000038
:1008C0000000000000000000000000000000000028
:1008D0000000000000000000000000000000000018
:1008E0000000000000000000000000000000000008
:1008F00000000000000000000000000000000000F8
:1009000000000000000000000000000000000000E7
:1009100000000000000000000000000000000000D7
:100920000000000000000000804040202020201037
:100930001010101008080404040830408000000063
:1009400000000000000000000000000000000000A7
:100950000000000000000000000000000000000097
:100960000000000000000000000000808080000007
:100970000000000000000000000000000000000077
:100980000000000000000000000000000000000067
:10099000000000000000000000000000000000183F
:1009A0006482020202020201000000008080000056
:1009B000000000000000008000303000C0C1C1C253
:1009C000040810204080000000808080804040406B
:1009D00040202020201010101008080808080404E7
:1009E00004040402020202010101010000000000EF
:1009F00000000000000000000000000000000000F7
:100A000000000000000000000000000000000000E6
:100A10000000000000000000000000000000C038DE
:100A20000403000000000000000C0C0C0D0100404D
:100A3000A02122121111110908080808040408084D
:100A40001010101010110F01010000000000000034
:100A50000000000000000000000000000000000096
:100A60000000000000000000000000000000000086
:100A700000000000000000000000000000000080F6
:100A80008080808040404040402020202020101066
:100A900010101008080808080404040404020302E3
:100AA000020101010101010202040408080808080A
:100AB000070000000000000000000000000000002F
:100AC0000000000000000000000000000000000026
:100AD0000000000000000000000000000000000016
:100AE0000000000000000000000000000000000006
:100AF00000000000000000000000000000000000F6
:100B000000000000000000000000000000000000E5
:100B100000000000000000000000000000000000D5
:100B20000000000000000000804040202020201035
:100B30001010101008080404040830408000000061
:100B400000000000000000000000000000000000A5
:100B50000000000000000000000000000000000095
:100B60000000000000000000000000808080000005
:100B70000000000000000000000000000000000075
:100B80000000000000000000000000000000000065
:100B9000000000000000000000000000000000183D
:100BA0006482020202020201000000008080000054
:100BB000000000000000008000303000C0C1C1C251
:100BC0000408102040800000008080808040404069
:100BD00040202020201010101008080808080404E5
:100BE00004040402020202010101010000000000ED
:100BF00000000000000000000000000000000000F5
:100C000000000000000000000000000000000000E4
:100C10000000000000000000000000000000C038DC
:100C20000403000000000000000C0C0C0D0100404B
:100C3000A02122121111110908080808040408084B
:100C40001010101010110F01010000000000000032
:100C50000000000000000000000000000000000094
:100C60000000000000000000000000000000000084
:100C700000000000000000000000000000000080F4
:100C80008080808040404040402020202020101064
:100C900010101008080808080404040404020302E1
:100CA0000201010101010102020404080808080808
:100CB000070000000000000000000000000000002D
:100CC0000000000000000000000000000000000024
:100CD0000000000000000000000000000000000014
:100CE0000000000000000000000000000000000004
:100CF00000000000000000000000000000000000F4
:100D000000000000000000000000000000000000E3
:100D100000000000000000000000000000000000D3
:100D200000000000000000000080804040404020A3
:100D30002020201008040202041860800000000037
:100D400000000000000000000000000000000000A3
:100D50000000000000000000000000000000000093
:100D60000000000000000000000000808080000003
:100D70000000000000000000000000000000000073
:100D80000000000000000000000000000000000063
:100D90000000000000000000000000000000003C17
:100DA000C201010202040402010000000000000070
:100DB000000000000000000000606000818282846A
:100DC000081020408000000000808080804040406B
:100DD00040202020201010101008080808080404E3
:100DE00004040402020202010101010000000000EB
:100DF00000000000000000000000000000000000F3
:100E000000000000000000000000000000000000E2
:100E100000000000000000000000000000008070E2
:100E20001906000000000000001818181B030040FD
:100E3000A02224141212120B08080808050509093B
:100E40001010101010110F01010000000000000030
:100E50000000000000000000000000000000000092
:100E60000000000000000000000000000000000082
:100E700000000000000000000000000000000080F2
:100E80008080808040404040402020202020101062
:100E900010101008080808080404040404020302DF
:100EA0000201010101010102020404080808080806
:100EB000070000000000000000000000000000002B
:100EC0000000000000000000000000000000000022
:100ED0000000000000000000000000000000000012
:100EE0000000000000000000000000000000000002
:100EF00000000000000000000000000000000000F2
:100F000000000000000000000000000000000000E1
:100F100000000000000000000000000000000000D1
:100F20000080800000000000804040202020201031
:100F30001010100804020101020C30408000000073
:100F400000000000000000000000000000000000A1
:100F50000000000000000000000000000000000091
:100F60000000000000000000000000808080000001
:100F70000000000000000000000000000000000071
:100F80000000000000000000000000000000000061
:100F90000000000000000000000000000000001E33
:100FA000E100000101020201000000008080000059
:100FB000000000000000008000303000C0C1C1C24D
:100FC0000408102040800000008080808040404065
:100FD00040202020201010101008080808080404E1
:100FE00004040402020202010101010000000000E9
:100FF00000000000000000000000000000000000F1
:1010000000000000000000000000000000000000E0
:1010100000000000000000000000000000008070E0
:101020000C03000000000000000C0C0C0D0100403F
:10103000A021221211111109080808080404080847
:101040001010101010110F0101000000000000002E
:101050000000000000000000000000000000000090
:101060000000000000000000000000000000000080
:1010700000000000000000000000000000000080F0
:101080008080808040404040402020202020101060
:1010900010101008080808080404040404020302DD
:1010A0000201010101010102020404080808080804
:1010B0000700000000000000000000000000000029
:1010C0000000000000000000000000000000000020
:1010D0000000000000000000000000000000000010
:1010E0000000000000000000000000000000000000
:1010F00000000000000000000000000000000000F0
:1011000000000000000000000000000000000000DF
:1011100000000000000000000000000000000000CF
:10112000000000000000000080404020202020102F
:101130001010100808040202020438408000000069
:10114000000000000000000000000000000000009F
:10115000000000000000000000000000000000008F
:1011600000000000000000000000008080800000FF
:10117000000000000000000000000000000000006F
:10118000000000000000000000000000000000005F
:101190000000000000000000000000000000001C33
:1011A000E201010202020201000000008080000052
:1011B000000000000000008000303000C0C1C1C24B
:1011C0000408102040800000008080808040404063
:1011D00040202020201010101008080808080404DF
:1011E00004040402020202010101010000000000E7
:1011F00000000000000000000000000000000000EF
:1012000000000000000000000000000000000000DE
:1012100000000000000000000000000000008070DE
:101220000C03000000000000000C0C0C0D0100403D
:10123000A021221211111109080808080404080845
:101240001010101010110F0101000000000000002C
:10125000000000000000000000000000000000008E
:10126000000000000000000000000000000000007E
:1012700000000000000000000000000000000080EE
:10128000808080804040404040202020202010105E
:1012900010101008080808080404040404020302DB
:1012A0000201010101010102020404080808080802
:1012B0000700000000000000000000000000000027
:1012C000000000000000000000000000000000001E
:1012D000000000000000000000000000000000000E
:1012E00000000000000000000000000000000000FE
:1012F00000000000000000000000000000000000EE
:1013000000000000000000000000000000000000DD
:1013100000007E0F00D4FFFFFFC700000078000030
:101320000000000000002A2B280000000000000040
:1013300000000000000000000029000000002C1E3A
:101340003420212224342627252E362D3738271EF7
:101350001F202122232425263333362E37381F041D
:1013600005060708090A0B0C0D0E0F1011121314B5
:1013700015161718191A1B1C1D2F3130232D350473
:1013800005060708090A0B0C0D0E0F101112131495
:1013900015161718191A1B1C1D2F3130354C290032
:1013A0001E001F002000210022002B0014001A0044
:1013B000080015001700E0000400160007000900EF
:1013C0000A00E1001D001B000600190005000000D6
:1013D0000151E300E2002C002F0035002700260019
:1013E0002500240023002D00130012000C0018001B
:1013F0001C00340033000F000E000D000B00E50050
:101400003800370036001000110000000251E700DC
:101410002A00280030000100010001000100010045
:10142000010001001E021F0220022102220201000F
:101430001E001F0020002100220001000100010009
:101440000100010001000000010001000100010095
:101450000100010001000100010001000100010084
:10146000270226022502240223020100270026006B
:10147000250024002300010030022F022E02350037
:101480003102000001000100010001000100010023
:10149000010001000100010001003A003B003C0096
:1014A0003D003E003F00010001000100010001007D
:1014B0000100010001000100010001000100000025
:1014C0000100010001000100010001000100010014
:1014D00001000100010045004400430042004100BA
:1014E000400000004F005200510050000000010079
:1014F000310030002F002E002E02000001000100FC
:1015000001000100010000000000000000000000D8
:1015100000000000000000000000000000000000CB
:1015200000000000000000000000000000000000BB
:1015300000000000000000000100010001000100A7
:10154000000000000000000000000000000000009B
:10155000000000000000000000000000000000008B
:10156000000000000000000000000000000000007B
:10157000000000000100010001000100000000AFB8
:1015800000AE05010980A101850319012AB70015E4
:101590000126B700950175108100C0050C0901A155
:1015A00001850419012AA002150126A002950175E2
:1015B000108100C00660FF0961A1010962150026C3
:1015C000FF009520750881020963150026FF00952C
:1015D0002075089102C005010906A101050719E05F
:1015E00029E7150025019508750181029501750807
:1015F00081010507190029FF150026FF00950675D2
:1016000008810005081901290595057501910295C4
:101610000175039101C009025B00030100A0FA09F2
:101620000400000103010100092111010001224011
:1016300000070581030800010904010002030000FE
:101640000009211101000122220007058203200068
:101650000107050303200001090402000103000043
:101660000009211101000122320007058403200036
:10167000011201000200000008D8042DEB00010156
:101680000203011C037600690061006C003A0066E9
:101690000036003400630032006200330063000053
:1016A000000E034C0069006C007900350038000022
:1016B0000010036C0069006C00690075006D007318
:1016C000000000040309040000000000003E5B4F1E
:1016D0005B3E003E6B4F6B3E001C3E7C3E1C001888
:1016E0003C7E3C18001C577D571C001C5E7F5E1C16
:1016F0000000183C180000FFE7C3E7FF00001824B3
:10170000180000FFE7DBE7FF0030483A060E00262E
:101710002979292600407F05050700407F05253FE0
:10172000005A3CE73C5A007F3E1C1C0800081C1C69
:101730003E7F0014227F2214005F5F005F5F00067F
:10174000097F017F00006689956A006060606060C3
:101750000094A2FFA2940008047E04080010207EDA
:1017600020100008082A1C0800081C2A0808001E6F
:1017700010101010000C1E0C1E0C0030383E3830BB
:1017800000060E3E0E060000000000000000005F94
:10179000000000000700070000147F147F140024DD
:1017A0002A7F2A120023130864620036495620500B
:1017B00000000807030000001C2241000000412235
:1017C0001C00002A1C7F1C2A0008083E0808000094
:1017D0008070300000080808080800000060600001
:1017E000002010080402003E5149453E0000427F9F
:1017F0004000007249494946002141494D330018D3
:1018000014127F10002745454539003C4A494931AB
:101810000041211109070036494949360046494926
:10182000291E0000001400000000403400000000E9
:101830000814224100141414141400004122140846
:10184000000201590906003E415D594E007C12110B
:10185000127C007F49494936003E41414122007FC8
:101860004141413E007F49494941007F0909090141
:10187000003E41415173007F0808087F0000417F0E
:101880004100002040413F01007F08142241007FB9
:1018900040404040007F021C027F007F0408107F10
:1018A000003E4141413E007F09090906003E415189
:1018B000215E007F09192946002649494932000363
:1018C000017F0103003F4040403F001F2040201F98
:1018D000003F4038403F006314081463000304785D
:1018E0000403006159494D4300007F41414100021A
:1018F0000408102000004141417F0004020102045D
:1019000000404040404000000307080000205454BD
:101910007840007F28444438003844444428003844
:101920004444287F0038545454180000087E0902AB
:10193000001824241C78007F080404780000447DEB
:101940004000002040403D00007F1028440000007F
:10195000417F4000007C04780478007C080404780F
:10196000003844444438007C1824241800182424E7
:10197000187C007C080404080048545454240004D3
:10198000043F4424003C4040207C001C2040201C9C
:10199000003C4030403C004428102844004C9090CB
:1019A000907C004464544C44000008364100000020
:1019B0000077000000004136080000020102040226
:1019C000003C2623263C0000000000008080808030
:1019D000000000000080E070180C1830E08000006B
:1019E00010F8901030783010B8FC3810000000006B
:1019F0000000F8FCF80000000000000000000000FB
:101A000000001C9C1C00000000F8FCF80000000016
:101A100000001CFCF8C000000000000080E0F87C22
:101A20001C000000F0FCFCFC1C1C1C1C1C1C1C1CD6
:101A3000000000000000C0F0F8381C1C1C1C1C1C1E
:101A40003CF8F0E000E0F0F0F0E0ECEEF7F37020AE
:101A5000007C7C7C7E007E7E7E7F7F7F000080C05D
:101A6000E07E5B4F5BFEC00000C000DCD7DEDEDE48
:101A7000D7DC00C0000000000000000000000000F3
:101A80000000000000000000000000000FBCE0812A
:101A90008181838382870C183060C000001FFE9014
:101AA000B9FFBB91983C1811133F110000000000D2
:101AB0000000FFFFFF000000000000000000000029
:101AC0000000FFFFFF00000000FFFFFF000000001C
:101AD00000000000030F7FF8E080F0FC3F0F0100E2
:101AE000000000003F3F3F1C1C1C1C1C3C78F8F011
:101AF000E08000000000C3E7FF7E3C38787870701B
:101B0000F8FFDF87000F1F3F7F7F7F7F7F3F1E0C27
:101B1000001F1F1F3F003F3F3F7F7F7F00307B7FC5
:101B20007830202030787F3B0003000F7F0F0F0FAD
:101B30007F0F000300000000000000000000000014
:101B400000000000000000183C24666341C1818051
:101B5000808080808081C14162386C4CC6818180E8
:101B60008080808081C14362361C18000000000024
:101B70000000FFFFFFC0C0C0C0C0C0C0C0C0800028
:101B800000007FFF7F000000007FFFFFC08000009B
:101B900000E0E0C0C0C0E0F97F1F070000000000C7
:101BA0000000000070F0E0E0C0C0C0C0E0F0F87FCE
:101BB0003F0F0000000F3F7FF9E0E0C0C0C0C0C091
:101BC000E0F97F3F1F00000000000000000000005F
:101BD0000000000000000000000000000000000005
:101BE00000000000000000000000000000000000F5
:101BF00000000000000000000000000000000000E5
:101C0000000000000000000011241FBECFEFDAE04A
:101C1000DEBFCDBF11E0A0E0B1E0E4E6FCE602C02B
:101C200005900D92A839B107D9F725E0A8E9B1E0F0
:101C300001C01D92A730B207E1F70E94230E0C9459
:101C400030360C940000CF93DF93CDB7DEB7E49726
:101C50000FB6F894DEBF0FBECDBF84B7877F84BFB9
:101C60000FB6F894A8958091600088618093600019
:101C7000109260000FBE90E080E80FB6F894809359
:101C80006100909361000FBE85B7806885BF85B7FE
:101C9000806885BF81E29BE19093990180939801D0
:101CA0000E94D6210E947C228091E2008460809371
:101CB000E20078948091E2028823A1F01091E9007B
:101CC0001F709091EC00892F817090FD80E8182B97
:101CD0001092E9008091E80083FD0E94C7271F70E1
:101CE0001093E90082E084BD93E095BD9AEF97BD23
:101CF00080936E0010929A0110929B0110929C01A9
:101D000010929D010E94AF2E811102C00E94A02E50
:101D10000E94821C809300010E94821C81110E94FB
:101D2000D3308091000180910001882311F090E070
:101D300001C095E09093A90185E0891B8093A801DB
:101D400003E411E0B8E4EB2EB1E0FB2ED8018D9155
:101D50008D018F3F11F00E94081DE016F106B1F7CA
:101D600008E411E0AEE4EA2EA1E0FA2EF801819138
:101D70008F018F3F11F00E94081DE016F106B1F7A8
:101D80008AE0E0E3F2E0DF01282F1D922A95E9F7CF
:101D9000EEE9F1E0DF011D928A95E9F780E090E03D
:101DA0000E945F32893E9E4F21F40E94AF2E811126
:101DB00002C00E949A1E82E090E00E9457328093F7
:101DC000AC0184E090E00E945732182F82E290E04C
:101DD0000E945732212F30E0382B3093AB012093F3
:101DE000AA010E94A11FEFE3FCE93197F1F700C0BF
:101DF00000000E94A11F8091300280FF08C06FEF99
:101E00007FEF80E090E00E9483320E94122483E002
:101E100090E00E9457320E94152D0E94821C811171
:101E200006C00E94821C811104C082E003C083E0CE
:101E300001C080E08093270280FD02C080E801C0DD
:101E400080E28093E4020E94672F6DE070E087E0FB
:101E500091E00E942A27892B09F043C08091270234
:101E600063E070E081FD3AC084E091E00E942A279F
:101E7000892BB9F56DE070E084EF90E00E942A278D
:101E8000892B79F50E947424DC01CB01805A95419D
:101E9000AF4FBF4F8093B4029093B502A093B602A8
:101EA000B093B702E7EEF2E080E092E0DF019C0140
:101EB0001D9221503040E1F7F093EE04E093ED04E1
:101EC0008FEF9FEF9093E6028093E50281E080938D
:101ED000B9028093B8021092280203C081E091E019
:101EE000C5CF0E94821C811102C00E94D63081E0C1
:101EF00091E09093C0028093BF028091E20285300E
:101F000009F04AC0F0E4FF2E00E112E18091E20204
:101F1000853009F03BC08091E202843029F10E94B3
:101F200064251092C30288E190E00FB6F894A8955A
:101F3000809360000FBEF092600083B7817F846061
:101F400083BF83B7816083BF7894889583B78E7F82
:101F500083BF0FB6F894A895809160008861809344
:101F60006000109260000FBE8091D802882309F4AF
:101F7000CDCF0E94A11FE0E3F2E081918111EDC578
:101F8000AAE3B2E0AE17BF07C1F7C0CF1092CC02F0
:101F90000E94192D0E94E1240E94A11F782E811118
:101FA0000E947424E0E3F2E0FCABEBABEDEAF1E07D
:101FB000A0E3B2E000E010E0C02EDD9081918D251D
:101FC00049F1E12CFF24F394982F9F21F1F00E9416
:101FD000821C882399F0E9A6CAA6DF2081E009F4D3
:101FE00080E08BA70E9480248160782F9DA78CA71A
:101FF00049A55AA56BA58DA50E948116F801E35548
:10200000FE4F8081F826F0821AC0E394FF0C26E090
:10201000E212DACF0F5F1F4F0A30110569F68FEF1A
:102020008EA78FA718AA0E9480248160782F9AAB70
:1020300089AB4EA55FA568A98AA90E9481160E9456
:10204000821C882309F4C8C0C090C201D090C3018B
:102050000D2C000CEE08FF0810910D01412F50E0EF
:10206000E4ECF1E081E090E04817590764F0219139
:1020700031914901330FAA08BB08C80CD91CEA1CCE
:10208000FB1C0196F1CFF7FE03C0C12CD12C7601C9
:102090006091BE017091BF018091C0019091C1011A
:1020A0000E9449241B012C01A0E6BAEEA70196016B
:1020B0000E9407334B015C0188EC189F90011124AA
:1020C000C901330FAA0BBB0B9C01AD01220D331DBF
:1020D000441D551DA5E0B0E00E9407339B01AC01F3
:1020E000C501B4010E94B93249015A0157FD0BC024
:1020F000213F3105410551054CF0E0EF8E2E912C2A
:10210000A12CB12C03C0812C912C5401A9EC2A16CE
:1021100031044104510414F18091BD0190E0019615
:1021200069E170E00E94A5328093BD01880F991F7C
:10213000FC01EE53FE4F11821082183110F41F5F24
:1021400001C018E110930D010E9474246093BE0138
:102150007093BF018093C0019093C101B2E0CB1690
:10216000D104E104F1041CF4812C912C5401609100
:10217000B9017091BA018091BB019091BC010E949C
:1021800049246B017C01653671058105910584F058
:102190000E9474246093B9017093BA018093BB01CB
:1021A0009093BC018091FE018093B8018092B701A9
:1021B0001091B801A091B701B0E0A11BB109A7012E
:1021C00096010E94123324E630E040E050E00E9485
:1021D000DB32120F1093FE018091B902882309F4BB
:1021E000C5C18091290290912A020E946524C2975C
:1021F00008F4BDC00E94802490932A028093290293
:1022000087EE92E09093EE048093ED040E94821C8E
:10221000882309F453C08BE491E00E94CD2686E424
:1022200091E00E94CD268091FE011F928F938EE354
:1022300091E09F938F9304EF11E01F930F930E94FF
:102240004633F80101900020E9F78F010150110990
:102250000F900F900F900F900F900F9064EFE62E5D
:1022600061E0F62EE016F10630F4D7018D917D0184
:102270000E942126F7CF8CE391E00E94CD2684E3D3
:1022800091E00E94CD268EE291E00E94CD2686E26A
:1022900091E00E94CD268091E3020E94A41A813031
:1022A00029F0823031F480E291E005C08AE191E0CA
:1022B00002C084E191E00E94CD2659C08091FE01C8
:1022C000882341F10E947E256091030270910402EF
:1022D00080910502909106020E944924693C710593
:1022E0008105910560F00E9474246093030270934D
:1022F000040280930502909306020E94E51A0E9450
:1023000074246093FF017093000280930102909304
:1023100002022DC06091FF017091000280910102C4
:10232000909102020E944924613C774289409105C4
:1023300018F00E9464251BC0609103027091040292
:1023400080910502909106020E944924693C710522
:102350008105910560F00E947424609303027093DC
:10236000040280930502909306020E94E51A809170
:10237000B902882309F4DFC02091E5023091E6021A
:102380002115310509F4D7C0809128028111D3C0ED
:10239000882E912CEE24E394F12C082E02C0EE0C32
:1023A000FF1C0A94E2F7A9014E215F21452B11F48D
:1023B0008F5FEECF90912702940145E0220F331FEB
:1023C0004A95E1F790FD12C08295880F8076809340
:1023D0001001220F232F221F330B3195209313015D
:1023E000815E809311011092140112C005E03695B0
:1023F00027950A95E1F7220F220F220F2093100153
:1024000010921301295F2093110183E0809314013E
:1024100024E630E047E050E06EE071E088E70E949B
:102420001E30892B09F087C08091270280FD23C0D0
:10243000C40115E0880F991F1A95E1F7AC014951C5
:102440005D4F04E610E020E230E060E488E70E949F
:102450004530892B09F06FC00E947E25E094F094EE
:102460008091E5029091E602E822F922F092E602DC
:10247000E092E50260C080E2E7E0F2E0DF011D9259
:102480008A95E9F7A5E0880C991CAA95E1F7B2E5D1
:102490002B2EB1E03B2E4EE451E0F10181911F0162
:1024A000DA019D91AD01B401690F711D69517D4F34
:1024B00090E0895F9D4FFC0107E09F01281B390BCD
:1024C000CC24C39401C0CC0C2A95EAF72B01D12C63
:1024D000D2011D912D011C21202F2D192770B22E04
:1024E000022E000C330BB12F01C0BB0FBA94EAF7D8
:1024F000BB2E3195219531092770332701C01695E0
:102500002A95EAF7B12A1081B12AB082D39428E043
:10251000D212DECF015031960F3F79F636E5231601
:1025200031E0330609F0B9CF04E610E020E230E0F4
:1025300047E052E08ACF8091B8028823B9F00E9428
:1025400074240091B4021091B5022091B60230912A
:10255000B702DC01CB01801B910BA20BB30B8F3FA9
:102560009F4FAF4FBF4710F40E94642571100E9427
:102570007E250E94E12490912B02891380932B02E7
:102580008091E202843009F0B8CC83E08093E900C6
:102590008091E80082FFB1CC8091E80085FF23C0E4
:1025A0000E94F52181111DC0F0E2EF2EF12C8E0169
:1025B0000F5F1F4F09C08091F100D8018D938D01ED
:1025C000B1E0EB1AF10869F08091E80085FDF3CFE6
:1025D0008091E8008B778093E8000E94F5218823A2
:1025E00099F391E001C090E08091E8008B778093AF
:1025F000E800992309F481CCE090B202F090B30294
:102600008981E114F10459F08E3F09F0A1C29A8149
:10261000933060F19550933008F09AC227C08B3008
:1026200009F49CC100F5853009F46FC0A0F4823034
:10263000D1F128F4813009F089C21A8275C0833043
:1026400009F456C0843009F081C24C816B818A81C3
:102650000E94502E0EC2873009F478C208F076C26C
:102660000E94D02575C2803109F4B9C08E010F5F78
:102670001F4F813160F48D3009F454C008F450C00C
:102680008E3009F453C08F3009F47BC05FC28231B1
:1026900009F4ABC008F4A6C0833109F4D0C08E3F62
:1026A00009F473C153C28A81823009F46EC2833047
:1026B00051F0813009F04AC20E9474249B838C83BC
:1026C0007D836E8345C28091AE029091AF02892BCB
:1026D00009F43EC2FE013396CE010D96ABA9BCA90A
:1026E0002D91BCABABAB2193E817F907B9F730C21A
:1026F0008A81823009F02AC26B817C818D819E8122
:102700000E9400330E947E2E23C22D813E813227FB
:10271000232732274C816B818A810E941A2E18C28E
:1027200080E161C081E08A8389E0F8C1EA80FB80B2
:10273000FE24EF24FE24AC80B12CBDE1AB16B10425
:1027400008F006C26801C70189509D4F9601201B01
:10275000310B2A153B0508F0FBC1E9E0EE16E1E07C
:10276000FE0630F40E945732D60114968C9302C0B4
:10277000F6011482FFEFEF1AFF0A2FEFC21AD20AF6
:10278000E2CF8091AE029091AF02892B09F4E0C1B3
:10279000EA80FB80FE24EF24FE24CC80D12C3DE196
:1027A000C316D10408F0D4C15801C70189509D4F08
:1027B0009501201B310B2C153D0508F0C9C1A9E07E
:1027C000EA16A1E0FA0620F4F50164810E94653260
:1027D000FFEFEF1AFF0A2FEFA21AB20AE6CF0E940C
:1027E000A425B6C186E08A83B3C1EA80FB80FE24BB
:1027F000EF24FE24AC80B12C3DE1A316B10408F017
:10280000A7C16801C70187969601201B310B2A15C5
:102810003B0508F09DC1A0EDEA16A2E0FA0628F4F7
:102820000E945732F601848303C0D60114961C928D
:10283000BFEFEB1AFB0AEFEFCE1ADE0AE3CFEA8016
:10284000FB80FE24EF24FE24AC80B12CFDE1AF160A
:10285000B10408F07DC1370127E2620E711C30ED32
:10286000E31632E0F30608F073C180ED92E08E19B2
:102870009F098A159B0508F46BC18091AE02909167
:10288000AF02892B11F0680160C0E0FE0FC0C701E4
:1028900086960E94573290E0982F88272D81822BB0
:1028A00081159C4531F48FEF8D8303C0C12CD12C51
:1028B00003C0CC24C394D12CC5018E0D9F1D4501AE
:1028C00080FF1BC0B1E08B1A910855E0452E512CBA
:1028D0004C0E5D1E480C591CC3018A0D9B1D0E94A5
:1028E0005732F201208130E0322F2227282B211588
:1028F0003C4519F48FEFD2018C93F801EC0DFD1DCE
:102900002FEFCF01801B910B8815990508F0BBCFE5
:10291000848190E0982F88273581832B81159C45F1
:1029200011F4248325833296ECCFE0EDEE16E2E03D
:10293000FE0628F4D60114966C910E946532BFEF12
:10294000EB1AFB0AEFEFCE1ADE0AC7018796960153
:10295000201B310B2A153B0540F3FAC08091AE02D3
:102960009091AF02892B09F4F3C0CE0101960E9429
:10297000A127FFEF21EE34E0F15020403040E1F795
:1029800000C000000E941224E3C0EA818E2F90E074
:102990008E30910508F0DCC0FC01EA5AFF4F0C9420
:1029A000FA3288E0E6E3F1E0DE01919601900D92C3
:1029B0008A95E1F780E2D8011D928A95E9F785E0D2
:1029C000898388E0FE01B196DE01159601900D9293
:1029D0008A95E1F7BDC08CE9898381E08A831B82F7
:1029E0001C82B6C08C8190E0982F88272B81820FA3
:1029F000911D092E000CAA0BBB0B35E0880F991F07
:102A0000AA1FBB1F3A95D1F7AC01BD01405E5F4FD5
:102A10006F4F7F4F481759076A077B0708F498C024
:102A20008C39E1E09E07A105B10508F091C04D3950
:102A3000F1E05F076105710520F04CE951E060E0CD
:102A400070E0481B590BBC016E5A7E4FC8010E94B2
:102A50004E327EC040E250E06FEF70E0C8010E944D
:102A60003F338091AE028983EA8284E08B838C833A
:102A700099E09D8391C021E030E03093B302209330
:102A8000B20282E390E090932F0280932E020E9484
:102A9000802490932D0280932C025AC0EF28B1F12C
:102AA00010913402129511708091390282958170D3
:102AB000182380912C0290912D020E946524853666
:102AC0009105F0F01123E1F00E94802490932D02F3
:102AD00080932C0280912E0290912F020197909367
:102AE0002F0280932E02892B89F41092B302109248
:102AF000B20281E090E09093AF028093AE0206C0F4
:102B000082E390E090932F0280932E028091AE0298
:102B100089838091B2028A8380912E028B8318C0B0
:102B20001092AF021092AE0213C040E250E06FEF7D
:102B300070E0C8010E943F330BC08B81811108C037
:102B400080E2D8011D928A95E9F702C08FEF898350
:102B5000CE0101960E94A127D0C909BD19BD09B4B3
:102B600000FEFDCF8091D8008F7D8093D8008091AA
:102B7000E00082608093E0008091E00081FDFCCF66
:102B80001092CC020E94192DC1C986E290E00E94E9
:102B900057321B821C821D828E83DACFAF92BF9286
:102BA000CF92DF92EF92FF920F931F93CF93DF9319
:102BB000EC018AE0A82E2881222309F497C0213055
:102BC00009F041C08981813039F48E010E5F1F4FB9
:102BD0008A810E94FC2D08C0823041F48E010E5F74
:102BE0001F4F8A810E94842DE8017EC0833039F412
:102BF0008E010E5F1F4F8A810E944C2DF5CF8430CD
:102C000011F0219671C02A81229680E090E030E098
:102C1000205331092A30310558F4A89EA001A99EFD
:102C2000500D1124C901840F951F21962881EFCFE3
:102C3000009709F459C0EFE9FFE03197F1F700C0C0
:102C400000000197F5CFE22FF0E0E25EFC4EB49079
:102C5000822F86958695869590E0FC01E25FFC4E7A
:102C6000E4902770F12C022E02C0F594E7940A94A8
:102C7000E2F7F1E0EF22FF24FC01E250FD4EC490A8
:102C8000D12C022E02C0D594C7940A94E2F731E009
:102C9000C322DD24FC01E251FD4E049110E002C08C
:102CA000159507952A95E2F701701127E114F104B3
:102CB00019F081EE0E94842DC114D10419F086EE22
:102CC0000E94842D8B2D0E94FC2DCD2819F086EEBC
:102CD0000E944C2DEF2819F081EE0E944C2D012B03
:102CE00019F08CE20E94FC2D219665CFDF91CF91E7
:102CF0001F910F91FF90EF90DF90CF90BF90AF901A
:102D000008951F93CF93DF93CDB7DEB767970FB6C4
:102D1000F894DEBF0FBECDBF4B8B5C8B6D8B7E8B73
:102D20008F8B61111092840286E09E01235F3F4FDA
:102D3000D901E82F1D92EA95E9F795E0FE01739617
:102D4000D90101900D929A95E1F79C894E895F898E
:102D50007B897D879E876F87598B488BF901DE01C0
:102D6000179601900D928A95E1F7CE0107960E9481
:102D7000132B81113EC086E0FE013796DE011196CD
:102D800001900D928A95E1F7FF81E8856A857B8540
:102D90006115710531F0EF3F31F481E0FF3F19F427
:102DA00003C081E001C080E080FD23C020914A0281
:102DB00030E0C90101968770992740917B0250E06D
:102DC0008417950779F1F983EA837D836C8396E014
:102DD000929FD001939FB00D1124A55BBD4FFE01C2
:102DE000319601900D929A95E1F780934A020E94E4
:102DF0002B1F16E080917B0290914A02891709F1FE
:102E0000189FC0011124855B9D4F0E94132B8823BE
:102E1000C1F080917B0290E00196877099278093A2
:102E20007B02E8CF1092CC020E94192D10924A0228
:102E300010927B02E4E4F2E086E0DF011D928A95C5
:102E4000E9F767960FB6F894DEBF0FBECDBFDF91EE
:102E5000CF911F9108958F929F92AF92BF92CF9280
:102E6000DF92EF92FF920F931F93CF93DF93CDB733
:102E7000DEB729970FB6F894DEBF0FBECDBFFC01B9
:102E80008081918123813481232B31F09F3F31F464
:102E900091E08F3F19F403C091E001C090E090FDF4
:102EA00040C37F0185E0DE01119601900D928A9565
:102EB000E1F7F701228189819A81222349F00E945A
:102EC000B72A182F682F89819A810E94CC2C03C0C1
:102ED0000E949C2C182F69817A81812F0E94B42531
:102EE0008C01F7018281882399F1C80190568115E0
:102EF000F0E29F0748F0905E811520E1920720F0F4
:102F0000915C81159F4118F4C801992708C00F3FB3
:102F1000110509F010F4C80102C080E090E09C01A6
:102F2000245031092432310518F08B970E9780F424
:102F3000E091BD01F0E0EE0FFF1FEE53FE4F8081E8
:102F400091818F3F2FE7920719F00196918380833B
:102F5000F7018281882309F4D5C2980122513F45A7
:102F60002031310508F0B6C08FEF93E00E94573250
:102F70008111D7C26EEEF62EF00E07EF12E0FF20A1
:102F800071F00115F4E01F0709F4CBC2C8010E94DB
:102F90005732811101C0FA940F5F1F4FF0CF1E828C
:102FA0001F8218861986CC24CA9478012FEFE21A62
:102FB000F20AC8010E9457328E831F82882309F4C7
:102FC000B0C2813009F081C0580142E0A40EB11CAA
:102FD000C7010E945732D82E8F83882309F4A1C2DB
:102FE0008FEF8D0D833060F4780153E0E50EF11C16
:102FF000C5010E9457328887811167C08701D5CFEC
:103000008BEF8D0D833090F5480183E0880E911C85
:10301000C5010E9457328887811102C07401EECF2A
:10302000780194E0E90EF11CC4010E9457328987AF
:10303000882321F3888599858130EFEF9E0718F06A
:10304000182F00E001C08C01F6E0DF1639F027E010
:10305000D21641F0C8010E941B2F04C0C8010E9473
:103060001B2FCCCFC8010E94C82EC8CF44E0D41675
:1030700011F07501C3CFC5010E945732D82E7801D7
:1030800054E0E50EF11CC80103960E945732DD2082
:1030900009F447C2882309F444C2282F30E02150A4
:1030A0003109C29EA001C39E500D11248D2D90E0C8
:1030B0000197840F951F019708F4A0CFEFE9FFE077
:1030C0003197F1F700C00000F6CFCE0106960E94BE
:1030D000CE1594CF0031FFE51F0711F481E005C044
:1030E00001312FE5120731F482E00E940A2D0E947F
:1030F000532717C2033F4CE5140749F406E221EEBB
:1031000040EE63EF7CE5C7010E94F1240AC2043F50
:103110005CE51507E0F5083D9CE5190731F407E289
:1031200025EE45EE68ED7CE5EECF093DECE51E07AA
:1031300031F408E221E045EE69ED7CE5E4CF073D9E
:10314000FCE51F0731F406E221EE41EE67ED7CE578
:10315000DACF8823D1F11092BC0201152CE51207B9
:1031600031F00E3D1C4589F50E949A1EDAC110927D
:10317000CC020E94192D5FEF84E39CE05150804007
:103180009040E1F700C000000E941224CAC1053F30
:103190002CE5120731F406E221EE42EE65EF7CE504
:1031A000B2CF053F4CE5140730F407E225EE44EEBC
:1031B00064EF7CE5A8CF063F5CE5150751F607E212
:1031C00025EE46EE66EF7CE59ECFF701008111818A
:1031D000882349F0C8010E94B72AD82E682FC80159
:1031E0000E94CC2C04C0C8010E949C2CD82EB8018F
:1031F0008D2D0E94B4250E941F1D082FC82EF70197
:1032000022814581342F32953F70D92ED2945FE0D0
:10321000D5228D2C912CFCE08F16910408F06BC107
:10322000F401EC59FF4F0C94FA32892F807F9F7084
:10323000192F882311F01295107F2223B9F0112342
:1032400009F445C180E2800F883010F0C11006C03B
:103250009091CC02192B1093CC0205C0909184025E
:10326000192B109384020E94041F31C1802F0E94E9
:103270004C2D112309F43FC1005E1095083010F069
:10328000C11006C09091CC0219231093CC0205C046
:10329000909184021923109384020E94041F2BC171
:1032A000892F807F9F70803211F4892F03C0892F6E
:1032B0008295807F51E0C5120AC0222321F036306A
:1032C00008F019C10DC0353008F015C119C022230E
:1032D00051F0332329F040FFFAC04F70F7014583C6
:1032E0000E94422D08C1332359F0093309F000C16F
:1032F000FFEF27EE43E0F15020404040E1F7F6C0F9
:103300000E94372DF8C0892F86958695837019F015
:10331000813059F0F0C0222319F0802F937002C041
:1033200080E090E00E94CB24FCC0222319F0802F83
:10333000937002C080E090E00E94B524F2C0892F13
:103340008370A9F52111DBC0802F82958695877047
:10335000880F880F202F2F70082E01C0220F0A948B
:10336000EAF704FF09C04FE050E001C0440F8A951E
:10337000EAF7842F809501C080E096959695492FB5
:103380004370423069F088F490918502413019F021
:10339000822B892302C0922B892B0E94152DAFC04E
:1033A000822B909185028927F8CF822BF6CF22239A
:1033B00019F0892F817001C08695882309F49FC078
:1033C000802F829586958770880F880F202F2F7009
:1033D000082E01C0220F0A94EAF704FF09C04FE04B
:1033E00050E001C0440F8A95EAF7842F809501C010
:1033F00080E096959695492F4370423059F078F4C5
:103400009091E302413019F0822B892309C0922B5D
:10341000892B06C0822B9091E302892701C0822B61
:103420000E94FA2C6CC0192F1F70222339F0812FB3
:103430000E940A2D802F0E94422D61C00E94372DCC
:10344000812F0E94FE2C5BC051EF851709F15817A0
:1034500020F0E0EF8E1741F036C0F2EF8F17F9F051
:1034600043EF841719F12FC0222379F0353008F08B
:1034700042C0292F2F7181E090E001C0880F2A956A
:10348000EAF79091E30289271BC03630A0F5F1CF0F
:10349000222339F0892F8F710E940A2D2CC02223FC
:1034A000C9F3892F8F710E94FE2C25C0222339F089
:1034B0009F7181E001C0880F9A95EAF701C080E012
:1034C0000E94FA2C18C0222331F0332319F3802FE5
:1034D0000E94842D10C0332321F3893349F45FEF18
:1034E00087EE93E0515080409040E1F700C000002B
:1034F000802F0E944C2D88EF8D0D843090F40E9417
:10350000E1240FC000314FE5140721F481E00E944F
:10351000FE2CEDCD01315FE5150709F0EBCD82E022
:10352000F6CF29960FB6F894DEBF0FBECDBFDF9160
:10353000CF911F910F91FF90EF90DF90CF90BF90B0
:10354000AF909F908F900895982F92959F7019F04B
:10355000892F24E001C020E0982F9695969511F0D0
:103560002E5F892F982F969509F02F5F822F08954F
:103570009C013A9521153F4130F5BC0166277270D8
:10358000AC01442754709C012227387094FF0FC06F
:1035900090FF02C080E101C080E0672B09F08062EB
:1035A000452B09F08064232B79F080680895892FDA
:1035B0008170672B09F08260452B09F08460232B12
:1035C00019F08860089580E008958091FE018F31A0
:1035D000B0F480913B0290E0019665E070E00E94BB
:1035E000A5329C0180933B0284E090E0821B930B08
:1035F000982F8827990F8251974F0E94DB26809140
:10360000FE018F51893020F48EEE96E00E94DB2679
:103610008091FE018832A0F020913A0230E02F5FC5
:103620003F4F2170332720933A0281E090E0821BC4
:10363000930B982F8827990F82519D4F0C94DB266E
:10364000089580E008959091AA0192FF0DC0282F5F
:103650002871283019F4877F846006C0282F2471D0
:10366000243011F48B7F886093FF0DC0282F2871C0
:10367000283119F4877E846106C0282F24712431F3
:1036800011F48B7E88612091AB0120FF0DC0382F93
:103690003871383019F4877F816006C0382F317156
:1036A000313011F48E7F886021FF0DC0282F2871E2
:1036B000283119F4877E816106C0282F21712131BC
:1036C00011F48E7E886194FD877E0895AF92BF923B
:1036D000CF92DF92EF92FF920F931F93CF93DF93DE
:1036E0007C015B016A018091AD028A3018F001E033
:1036F00010E002C00AE010E0C1E0D0E0F894B501AB
:10370000C701F60109957894811115C021960C170F
:103710001D0794F0CC9F9001CD9F300D300D1124EA
:1037200080E090E045E34A95F1F7000001968217AA
:103730009307C1F7E3CF81E0DF91CF911F910F9104
:10374000FF90EF90DF90CF90BF90AF9008950F93D0
:103750001F93CF93DF931F92CDB7DEB71091FE0179
:1037600019830091A8026091A9027091AA02809128
:10377000AB029091AC020E94492464367105810528
:10378000910510F4011719F180912E0190912F01EC
:1037900082569D4F40912D0150E04115510511F089
:1037A00041E050E0BE016F5F7F4F0E94363383E0FF
:1037B00090E00E94BF31882359F00E9474246093E6
:1037C000A9027093AA028093AB029093AC0281E0AD
:1037D0000F90DF91CF911F910F910895EF92FF927B
:1037E0001F93CF93DF9300D000D000D0CDB7DEB7CA
:1037F0007B0180E090E00E94BF31882309F456C02D
:103800004091180150E04115510511F041E050E0A0
:103810006091190170911A0162567D4FCE01069692
:103820000E943633609196027091970280919802BF
:10383000909199020E944924643671058105910591
:1038400038F48FE992E00E945E279E81891781F10A
:1038500081E090E00E94BF31182F882391F04091C1
:10386000200150E04630510510F045E050E06091F5
:1038700021017091220162567D4FCE0101960E9476
:1038800036338FE992E00E945E2791E02E81281363
:1038900090E0192311F10E947424609396027093B2
:1038A000970280939802909399020CC010E001C097
:1038B00011E085E0EFE9F2E0DE01119601900D9252
:1038C0008A95E1F7112349F085E0FE013196A1E9DF
:1038D000B2E001900D928A95E1F785E0E1E9F2E02E
:1038E000D70101900D928A95E1F7812F26960FB6A8
:1038F000F894DEBF0FBECDBFDF91CF911F91FF9037
:10390000EF90089580919002811118C08091D800A5
:1039100080618093D8008AE18A95F1F700C0809198
:10392000D90080FD02C082E001C081E08093900256
:10393000823021F40E94D6211092E20281E090911F
:103940009002913009F080E008950F931F93CF9378
:10395000DF9300D000D0CDB7DEB760919A027091AE
:103960009B0280919C0290919D020E9449246436A2
:1039700071058105910508F441C00E94821C8823CD
:1039800019F00E9474240EC00E94742400919A01C0
:1039900010919B0120919C0130919D01600F711F3E
:1039A000821F931FDC01CB010296A11DB11D8983EB
:1039B0009A83AB83BC838091260190912701825624
:1039C0009D4F4091250150E04530510510F044E0F5
:1039D00050E0BE016F5F7F4F0E94363382E090E07F
:1039E0000E94BF31882359F00E94742460939A0288
:1039F00070939B0280939C0290939D0281E00F90B4
:103A00000F900F900F90DF91CF911F910F9108951C
:103A1000F894E82FE295EF70F0E031A1282F2F7095
:103A200081E090E001C0880F2A95EAF7982F9095E1
:103A3000932391A392A1892B82A378940895CF9385
:103A4000DF938238910569F1B0F48133910509F46F
:103A50006FC048F48932910509F465C08A32910536
:103A600009F46BC08AC08533910509F457C08933C6
:103A70009105B9F082C0833E910571F138F4803E22
:103A80009105B1F0823E910511F177C0863E910516
:103A9000B9F1873E9105C9F1843E910509F06DC0E9
:103AA00024C02091AA0120FD53C021FD51C065C052
:103AB0008091AA0180FD46C08091AB0180FF48C083
:103AC0008091AA0184FD31C183EE90E030C18091E4
:103AD000AA0182FF3AC0F4CF8091AA0182FD35C0CD
:103AE0008091AB0180FD34C0EBCF8091AB0181FFB1
:103AF00035C08091AA0184FD18C187EE90E017C1FE
:103B00008091AA0183FF27C0F4CF8091AA0183FD91
:103B100022C08091AB0181FD21C0EBCF8091AA0131
:103B200085FD1FC021C08091AA0185FD1DC019C05F
:103B30008091AA0186FD1BC01DC08091AA0186FD4F
:103B400019C015C089E390E0F2C082EE90E0EFC0AA
:103B500080EE90E0ECC086EE90E0E9C084EE90E06C
:103B6000E6C089E290E0E3C085E390E0E0C08AE24D
:103B700090E0DDC081E390E0DAC0811531E5930784
:103B800008F062C0811540E59407F0F09C0154E014
:103B9000369527955A95E1F7922F9370482F4370E9
:103BA00021E030E002C0220F331F4A95E2F73C6863
:103BB000392B982F9F709695969540E2949FC0015F
:103BC0001124822B932BB3C08F3B910520F5883AAB
:103BD000910558F0885AE82FF0E0EE0FFF1FE75AE2
:103BE000FE4F808191819464A2C0853A910548F08E
:103BF000855AE82FF0E0EA5AFE4F808190E0906409
:103C000096C08430910508F092C0019709F08DC0EC
:103C100081E090E08CC0811520E2920768F4811564
:103C200031E0930708F083C09C01205E3109283001
:103C3000310508F07AC07BC0811540E4940708F490
:103C400074C09F70906A73C0811524E59207C8F50F
:103C5000811533E59307B0F09C012370332741E0D1
:103C600050E002C0440F551F2A95E2F7282F2695F1
:103C7000269580E2289F90011124CA01822B932B64
:103C80009A6855C0811542E5940728F4982F882733
:103C9000816F906A4CC09C012370332741E050E053
:103CA00002C0440F551F2A95E2F7282F2695269526
:103CB00080E2289F90011124CA01822B932B9C68DB
:103CC00036C0EC01C1158AE5D807F8F4C11529E51D
:103CD000D20790F08C2F8F700E94231B94E0D69512
:103CE000C7959A95E1F7CF70D0E0DC2FCC27D0694B
:103CF0009E01282BC9011BC0C11538E5D307A8F0C8
:103D00009C2F8827806F906A12C0CE019056811533
:103D1000904258F48D2F8F710E94231B282F2F71F2
:103D2000CE0199279062922B02C080E090E0DF9153
:103D3000CF91089569EE7EEF80E090E00E9483329B
:103D400060E082E090E00E94653260E083E090E015
:103D50000E9465321092850260E084E090E00E944B
:103D6000653260E082E290E00E94653260E085E0CA
:103D700090E00E94653260E086E090E00E9465324B
:103D80006FEF87E090E00E94653240E050E0BA01BA
:103D900088E090E00E94773260E08DE090E00E9441
:103DA000653240E050E0BA0188E190E00E9477324D
:103DB00060E087E190E00E94653240E050E0BA01A7
:103DC0008CE190E00E94773260E070E080E290E069
:103DD0000E94833240E050E0BA0188E190E00E9406
:103DE000773280E00E94822E0E94A02E40E050E0B8
:103DF000BA018FE090E00E94773240E050E0BA01D3
:103E000083E190E00C9477329091CC02809184020F
:103E1000892B80933C0248E050E06CE772E08CE331
:103E200092E00E942933892BA9F088E0ECE3F2E0CC
:103E3000ACE7B2E001900D928A95E1F7E091BF0204
:103E4000F091C002309731F00280F381E02D8CE3D5
:103E500092E00994089580917B0290914A0289171B
:103E600019F08F5F8770FBCF08950F931F93CF9347
:103E7000DF938091490282958F7009F05DC0809137
:103E80004602882309F458C080917B0210914A02AF
:103E90006091440270914502C0914702D09148025E
:103EA00091E06F3F09F090E0292F06E0811709F4B7
:103EB00043C0209721F07F3F21F030E003C031E084
:103EC00001C0322F90E030FD34C0089FF001099FFF
:103ED000F00D1124DF01A55BBD4F11963C911197A8
:103EE000371327C03C91361324C012963C91129789
:103EF00031111FC013964D915C9114974C1B5D0BB3
:103F000044365105B0F4809149028F7080618093EE
:103F10004902E05BFD4F80818F708061808384E483
:103F200092E00E942B17DF91CF911F910F910C947B
:103F30002B1F01968770BACFDF91CF911F910F9100
:103F400008957F928F929F92AF92BF92CF92DF920D
:103F5000EF92FF920F931F93CF93DF93CDB7DEB70E
:103F60002F970FB6F894DEBF0FBECDBFAE014F5FE7
:103F70005F4F7A018AE0DA011D928A95E9F703E43E
:103F800011E06A0188E4A82E81E0B82E8824839489
:103F9000912CF80180818F3F09F441C0F894E82FFB
:103FA000E295EF70F0E021A18F70A40102C0440FF0
:103FB000551F8A95E2F7CA01922F982B91A392A1DF
:103FC0008095892382A3789400C0E8E4F1E0712C05
:103FD00031E021912F3F89F0A22FA295AF70B0E080
:103FE00090968C9190E02F7002C0959587952A95B8
:103FF000E2F780FD02C0832F01C080E0782A330FF2
:1040000051E0EE34F50729F7D8018C918F3F11F07C
:104010000E94081DB0EABA95F1F7F60170820F5FB1
:104020001F4FFFEFCF1ADF0AA016B10609F0B1CF7C
:104030004AE050E0B7018EE991E00E9429338C01FB
:10404000892B41F08AE0F701AEE9B1E001900D92D1
:104050008A95E1F7F090A9010115110549F081E079
:10406000809388020E948024909387028093860226
:10407000809188028823B1F0809186029091870216
:104080000E946524059770F0AEE9B1E0EF2DF0E0F5
:10409000E05DFD4F8D91819321E0A33AB207D1F706
:1040A000109288020115110509F0C2C00E94821CFD
:1040B000E091A901882309F471C07E014BE0E40E70
:1040C000F11C85E0D7011D928A95E9F70E2F10E0CB
:1040D000005D1D4F8091AD028A3048F44EEE5BE1E9
:1040E000B701C8010E94661B882371F10AC0809144
:1040F000890290918A020E946524843F914070F762
:1041000034C045EA5CE1B701C8010E94661B882300
:10411000D9F047EA5BE1B701C8010E94661B88231A
:1041200099F01092AD028091A80190E045E050E036
:10413000B701805D9D4F0E94293321E020938F02BB
:10414000892BF1F400E076C08091AD028F3F19F029
:104150008F5F8093AD028091AD028A3020F30E9480
:10416000802490938A028093890280918F02882311
:1041700049F385E0F70111928A95E9F710928F02D1
:10418000A091A801B0E0A05DBD4F85E0FE013B9687
:1041900001900D928A95E1F701E04CC0F0E0E05DFE
:1041A000FD4FF89485E0AFE9B2E001900D928A9559
:1041B000E1F78FE992E00E945E2780939E02789457
:1041C000F894C090A402D090A502E090A602F090CE
:1041D000A70280918B0290918C02A0918D02B091E8
:1041E0008E02C816D906EA06FB06D1F0C0928B02F1
:1041F000D0928C02E0928D02F0928E020E94821C7C
:1042000081110EC00E947424C61AD70AE80AF90A5E
:10421000C0929A01D0929B01E0929C01F0929D0184
:104220007894F8948091A8028093FE01789402C05B
:1042300001E010E0802F2F960FB6F894DEBF0FBE7E
:10424000CDBFDF91CF911F910F91FF90EF90DF9045
:10425000CF90BF90AF909F908F907F9008950895DA
:1042600008958091CE0208958093C8027093CA0287
:104270006093C9028091E2028430F9F48093E900EE
:104280008FEF9091E800815095FD06C095ED9A95CD
:10429000F1F700008111F5CF8091E80085FF0DC096
:1042A00040E050E063E070E088EC92E00E94752707
:1042B0008091E8008E778093E8000895BC0184E047
:1042C0000C943421BC0183E00C943421CF93DF9310
:1042D00021E02093E9002FEF3091E800215035FDD7
:1042E00006C035ED3A95F1F700002111F5CF209188
:1042F000E80025FF14C0EC0140E050E068E070E009
:104300000E9475278091E8008E778093E80088E00E
:10431000FE01AFECB2E001900D928A95E1F7DF91DA
:10432000CF9108951F920F920FB60F9211242F93E1
:104330003F934F935F936F937F938F939F93AF932D
:10434000BF93CF93DF93EF93FF93C091E900CF70BA
:104350008091EC00D82FD17080FDD0E81092E90058
:104360008091F000877F8093F00078940E94C727A7
:104370001092E9008091F00088608093F000CD2BCE
:10438000CF70C093E900FF91EF91DF91CF91BF9182
:10439000AF919F918F917F916F915F914F913F91DD
:1043A0002F910F900FBE0F901F901895E8EDF0E041
:1043B00080818E7F80831092E2001092DA0010924A
:1043C000E100A0EEB0E08C9181608C9380818F77CA
:1043D000808319BCA7EDB0E08C918E7F8C93808197
:1043E0008F7E80831092CB0208952091E40030915B
:1043F000E50095E64091EC00842F817040FF23C0DA
:104400008091E80080FD1DC08091E202882399F030
:10441000853099F08091EB0085FD11C04091E4005A
:104420005091E5002417350729F3915011F09A01B6
:10443000E1CF84E0089582E0089583E0089581E06B
:10444000089580E008954091E80042FFDDCF08958F
:104450008091DA0287FF11C08091E80082FD05C0DB
:104460008091E2028111F8CF11C08091E8008B7732
:104470000BC08091E202882349F08091E80080FF20
:10448000F8CF8091E8008E778093E8000895982F08
:10449000973068F59093E900981739F07091EC0027
:1044A0002091ED005091F00003C0242F762F50E0B2
:1044B00021FD02C09F5FECCF3091EB003E7F309337
:1044C000EB003091ED003D7F3093ED003091EB003B
:1044D00031603093EB007093EC002093ED0050932B
:1044E000F0002091EE0027FDE5CF80E008958F7069
:1044F0008093E90081E00895CF92DF92EF92FF92DE
:104500000F931F93CF93DF93C8EDD0E088818F7E08
:104510008883E7EDF0E080818160808384E082BF62
:1045200081E08093CB0288818E7F888302EE10E049
:10453000F80110821092DA0081EEC82ED12CF6011B
:10454000108288818F7788838881806888838881BA
:104550008F7D888319BC1092E2021092D9021092CA
:10456000D8021092D70290EEE92EF12CF70180814B
:104570008B7F808388818160888342E060E080E077
:104580000E944722F60180818E7F8083F80180811E
:1045900081608083808188608083F70180818E7F45
:1045A0008083888180618883DF91CF911F910F91F3
:1045B000FF90EF90DF90CF9008951F920F920FB66B
:1045C0000F9211242F933F934F935F936F937F9399
:1045D0008F939F93AF93BF93EF93FF938091E100ED
:1045E00082FF09C08091E20082FF05C08091E10056
:1045F0008B7F8093E1008091DA0080FF2AC0809158
:10460000D80080FF26C08091DA008E7F8093DA0088
:104610008091D90080FF18C080E189BD82E189BD09
:1046200009B400FEFDCF81E08093E2028091CB02CD
:1046300081110FC00E94D6210E947C228091E2004D
:1046400084608093E20005C019BC1092E2021092CF
:10465000CB028091E10080FF17C08091E20080FFD3
:1046600013C08091E2008E7F8093E2008091E2008F
:1046700080618093E2008091D80080628093D800AE
:1046800019BC85E08093E2028091E10084FF30C094
:104690008091E20084FF2CC080E189BD82E189BD68
:1046A00009B400FEFDCF8091D8008F7D8093D800A3
:1046B0008091E1008F7E8093E1008091E2008F7E07
:1046C0008093E2008091E20081608093E20080911B
:1046D000D902882311F084E007C08091E30087FDB0
:1046E00002C081E001C083E08093E2028091E20297
:1046F0008091E10083FF27C08091E20083FF23C007
:104700008091E100877F8093E10082E08093E20264
:104710001092D9028091E1008E7F8093E100809118
:10472000E2008E7F8093E2008091E20080618093BE
:10473000E20042E060E080E00E9447228091F000C9
:1047400088608093F000FF91EF91BF91AF919F91AE
:104750008F917F916F915F914F913F912F910F902A
:104760000FBE0F901F9018952091E0023091E1024A
:104770002617370748F06115710539F42091E800D4
:104780002E772093E80001C0B901FC0120E06115FB
:10479000710579F18091E2028823F1F18530F1F120
:1047A0008091E80083FD3CC08091E80082FD2EC02E
:1047B0008091E80080FFEBCF2091F3008091F20020
:1047C00090E0922B6115710551F08830910538F415
:1047D00021912093F100615071090196F3CF21E0FE
:1047E000089709F020E08091E8008E778093E80038
:1047F000CECF2111CFCF0AC08091E202882361F091
:10480000853061F08091E80083FD0AC08091E80066
:1048100082FFF2CF80E0089582E0089583E008955A
:1048200081E0089587E797E7909301088093000857
:104830009AE088E10FB6F894A895809360000FBEC7
:1048400090936000FFCF78941F920F920FB60F9253
:1048500011248F939F93AF93BF938091C402909143
:10486000C502A091C602B091C7020196A11DB11D5B
:104870008093C4029093C502A093C602B093C7026E
:10488000BF91AF919F918F910F900FBE0F901F908E
:104890001895CF92DF92EF92FF922FB7F894C090C5
:1048A000C402D090C502E090C602F090C7022FBFAC
:1048B000A7019601261B370B480B590BCA01B901FA
:1048C000FF90EF90DF90CF9008959C014FB7F89440
:1048D0008091C4029091C502A091C602B091C70216
:1048E0004FBF821B930B08952FB7F8946091C402B9
:1048F0007091C5028091C6029091C7022FBF0895A2
:104900002FB7F8948091C4029091C502A091C6027D
:10491000B091C7022FBF08951F920F920FB60F924A
:1049200011248F939F93AF93BF938091C302811102
:1049300013C08091C4029091C502A091C602B091AB
:10494000C7024196A11DB11D8093C4029093C50278
:10495000A093C602B093C702BF91AF919F918F9170
:104960000F900FBE0F901F9018952091C1023091AB
:10497000C2022817390771F09093C2028093C102D6
:10498000E091BF02F091C002309721F00084F185E0
:10499000E02D099408952091BD023091BE022817A0
:1049A000390771F09093BE028093BD02E091BF027F
:1049B000F091C002309721F00680F781E02D099434
:1049C00008950E94821C882351F0E091BF02F0916B
:1049D000C002309721F00190F081E02D099480E031
:1049E00008950F931F93CF93DF93C42FD22FFC0111
:1049F00082818823C9F04093BC020E948024909356
:104A0000BB028093BA0280E28C0F883008F057C056
:104A1000C77081E001C0880FCA95EAF7DF91CF9196
:104A20001F910F910C94422D8091BC02481330C00D
:104A30008091BA029091BB020E9465248436910550
:104A400038F510E21D0FCD17B9F080E28C0F8830D9
:104A500040F4C77081E001C0880FCA95EAF70E9450
:104A6000372D183028F581E09D2F977001C0880FF1
:104A70009A95EAF70E94422D802F0E94FC2D183053
:104A8000F0F4D77081E001C0880FDA95EAF70AC028
:104A900080E28C0F883098F4C77081E001C0880FE5
:104AA000CA95EAF7DF91CF911F910F910C94372DA2
:104AB000802FDF91CF911F910F910C94FC2DDF91EE
:104AC000CF911F910F9108958091B9029091B802F2
:104AD000882389F0992369F062E070E080E895E12D
:104AE0000E942A27892B19F08091B802089510920C
:104AF000B8029091B80281E0892708958091B902A7
:104B00008823F9F00E947424DC01CB01805A95417E
:104B1000AF4FBF4F8093B4029093B502A093B602FB
:104B2000B093B7028091B80281110BC062E070E0CF
:104B30008EE795E10E942A27892B19F481E0809362
:104B4000B8028091B8020895CF93DF93C7EFD2E007
:104B500060E0CE010E9465322196C11584E0D8073D
:104B6000B9F7DF91CF910895462F2091B20230918D
:104B7000B302232B91F47E3F39F46E3F71F48091A0
:104B8000B0029091B1020895863038F47A3028F45A
:104B9000663018F4672F0C94502E80E090E0089552
:104BA0008F929F92AF92BF92CF92DF92EF92FF923D
:104BB0000F931F93CF93DF93C090AE02D090AF02BC
:104BC00081E090E09093AF028093AE02812CE12CC3
:104BD000F12C912C00E010E0C0E0D0E05701A00ED5
:104BE000B11EFE01EE0FFF1FEA0DFB1DE256FC4E4B
:104BF000259134914C2F692D882D0E941A2E2196D3
:104C0000C630D10571F7045F1F4F93948AE0981264
:104C1000E3CF88E7E80EF11C839486E08812D9CFB1
:104C2000D092AF02C092AE02DF91CF911F910F914F
:104C3000FF90EF90DF90CF90BF90AF909F908F90BC
:104C40000895CF93DF93C091ED04D091EE048A30A4
:104C5000B1F42091E402CE01875E9240622F70E0B1
:104C60000E943A32281B822F66E00E949932C82F98
:104C7000C15008F48FC080E20E942126F9CF8D3008
:104C8000E9F4C75ED2402091E402622F70E0CE01C9
:104C90000E943A32281B822F9E01280F311D2115B8
:104CA000324018F080E0C0E0D0E0C80FD11DC951FB
:104CB000DD4FD093EE04C093ED046CC096E0FE018E
:104CC000A7EEB4E001900D929A95E1F7803E30F0A6
:104CD00086E0FE0111928A95E9F70BC0F6E08F9FFE
:104CE000B00111246953794E46E050E0CE010E9494
:104CF0004E32C091ED04D091EE0446E050E0BE018A
:104D000087EE94E00E942933892B49F19E01275EAA
:104D10003240A90185E0569547958A95E1F781E0F3
:104D200090E0BC0102C0660F771F4A95E2F7409100
:104D3000E5025091E602462B572B2B5F3F4F65E073
:104D4000369527956A95E1F702C0880F991F2A9535
:104D5000E2F7842B952B9093E6028093E5029E0167
:104D6000215E32404091E402642F70E0C9010E944C
:104D70003A32481B463010F4240F311D211582E0D1
:104D8000380710F020E030E029513D4F3093EE0419
:104D90002093ED04DF91CF910895CF93DF93EC0141
:104DA000FE018491882321F00E9421262196F8CFCC
:104DB000DF91CF910895EF92FF920F931F93CF93BE
:104DC000DF932091ED043091EE04275E3240A9017B
:104DD0005E5F4130524028F040E052E0421B530BEE
:104DE00002C040E052E0C091E502D091E602D90154
:104DF000A951BD4FB901420F531F01E010E06417E4
:104E00007507E8F4FB01E21BF30BE80FF91FE491CF
:104E1000FC91EF1781F0EC93FB01689414F8F69580
:104E2000E7951694E1F7780102C0EE0CFF1CEA95B5
:104E3000E2F7CE29DF296F5F7F4F1196E0CFD09345
:104E4000E602C093E502DF91CF911F910F91FF9091
:104E5000EF900895EF92FF920F931F93CF93DF93FC
:104E6000EC017B0164E670E088E70E946D2F8C0105
:104E7000EC0EFD1ECE15DF0561F017FD0AC0FE0128
:104E8000849164E670E00E94EE2F8C012196892BBC
:104E900089F30E947230C801DF91CF911F910F9169
:104EA000FF90EF9008958091E302982F96709630CE
:104EB00011F4886001C0877F0C94FA2CFC01AC01CE
:104EC0004B5F5F4F8FEF91E32191822728E030E025
:104ED00087FF03C0880F892701C0880F215031093F
:104EE000B9F7E417F50781F70895EF92FF920F9352
:104EF0001F93CF93DF937C018B010E94F5218111D9
:104F000019C0E70101151105A1F08091E80085FDA8
:104F10000AC08091E8008E778093E8000E94F52116
:104F2000882381F307C089918093F1000150110912
:104F3000E9CF80E0DF91CF911F910F91FF90EF902B
:104F40000895CF932091E2022430F9F4C091E90052
:104F5000CF703091EC00232F217030FD20E8C22B60
:104F600022E02093E9002091E80020FF0BC040E000
:104F700050E060E270E00E9475278091E8008E7733
:104F80008093E800CF70C093E900CF9108951F93FC
:104F9000CF93DF93CDB7DEB7AA970FB6F894DEBFF5
:104FA0000FBECDBFEAEDF2E082EE92E02091F1007B
:104FB00021938E179F07D1F78091DB02833009F48C
:104FC00063C030F4813071F0823009F49FC0B6C004
:104FD0008A3009F48BC08B3009F46EC0893009F037
:104FE000ADC020C08091DA02813A09F0A7C080915B
:104FF000E800877F8093E8008091DE029091DF02D5
:10500000892B21F468E08FEC92E003C060E080E03F
:1050100090E070E00E94B4238091E8008B77809349
:10502000E8008CC08091DA02813209F087C080915B
:10503000DE029091DF02009719F0029709F07EC01E
:105040008091E800877F8093E8008091E80082FDEE
:1050500005C08091E2028111F8CF70C02091F30069
:105060008091F20090E0922B029731F48091F10050
:10507000813011F0863021F48091F1008093CE02CE
:105080008091E8008B7756C08091DA02813A09F06E
:1050900055C08091DE029091DF02892B09F04EC04D
:1050A0008091E800877F8093E8008091E80080FF8E
:1050B000FCCF8091350139C08091DA028132F1F55F
:1050C0008091DE029091DF02892BC1F58091E8008A
:1050D000877F8093E8000E9428228091DC028093E1
:1050E00035011092CC020E94192D28C08091DA025D
:1050F000813221F58091E800877F8093E8000E944B
:1051000028228091DD028093CD0218C08091DA02BE
:10511000813AA1F48091E800877F8093E800809134
:10512000E80080FFFCCF8091CD028093F100809158
:10513000E8008E778093E8000E9428228091E800A2
:1051400083FFEBC18091DA029091DB02492F50E09E
:105150004A30510508F0E1C1FA01E059FF4F0C94C3
:10516000FA32803821F0823809F0D7C108C0809126
:10517000D7029091D802992389F082600FC0809164
:10518000DE028F70873008F0C8C18093E9008091FB
:10519000EB0085FB882780F91092E9009091E800E8
:1051A000977F9093E8008093F1001092F1007CC10A
:1051B000282F2D7F09F0B1C1882319F0823061F0CA
:1051C000ACC18091DC02813009F0A7C1933009F0B5
:1051D00080E08093D8022EC08091DC0281112AC029
:1051E0008091DE028F702FEF280F263008F095C1D6
:1051F0008093E9002091EB0020FF1CC0933021F444
:105200008091EB00806214C09091EB0090619093CC
:10521000EB0021E030E0A90102C0440F551F8A9540
:10522000E2F74093EA001092EA008091EB00886078
:105230008093EB001092E9008091E800877F8093D3
:10524000E8000E94282269C1811167C11091DC0227
:105250001F778091E3008078812B8093E300809119
:10526000E800877F8093E8000E9428228091E80070
:1052700080FFFCCF8091E30080688093E3001111F0
:1052800002C082E001C083E08093E20246C1805800
:10529000823008F042C12091DC023091DD022C3DC9
:1052A00053E0350779F583E08A838AE289834FB733
:1052B000F894DE01139620E03EE051E2E32FF0E0A7
:1052C00050935700E49120FF03C0E295EF703F5FD9
:1052D000EF708E2F90E0EA3010F0C79601C0C096B4
:1052E0008D939D932F5F243149F74FBF8091E80044
:1052F000877F8093E8006AE270E0CE0101960E9409
:10530000B423C0C08091DE029091DF02432F552765
:1053100043305105B1F068F44130510509F40CC136
:105320004230510509F0F9C08BE590E0E6E1F6E185
:1053300057C04132510589F14232510509F43CC050
:10534000ECC0C901992781309105B9F070F0823025
:105350009105D9F0039709F0E0C0E3E8F6E1E491A4
:105360008E2F90E0E3E8F6E138C0E3ECF6E1E4915B
:105370008E2F90E0E3ECF6E130C0E1EBF6E1E49152
:105380008E2F90E0E1EBF6E128C0E1EAF6E1E4914E
:105390008E2F90E0E1EAF6E120C08330910508F01D
:1053A000BCC0880F991FFC01EE56FE4F0190F081A2
:1053B000E02D89E090E014C08330910508F0ADC085
:1053C000FC01EE0FFF1FE457FE4F0190F081E02D2E
:1053D000DC01A757BE4F8C9190E0009709F49DC067
:1053E0002091E800277F2093E8002091E00230918F
:1053F000E1022817390708F4C90140E0009789F154
:105400002091E202222309F43DC02530D9F12091F8
:10541000E80023FD37C02091E80022FD2FC0209135
:10542000E80020FFEBCF4091F3002091F20030E044
:10543000342B009759F02830310540F444914093C3
:10544000F100319601972F5F3F4FF3CF41E02830B5
:10545000310509F040E02091E8002E772093E80024
:10546000CDCF4111CDCF0AC08091E202882351F007
:10547000853041F08091E80083FD04C08091E80010
:1054800082FFF2CF8091E8008B778093E80045C0DF
:10549000803809F042C08091E800877F8093E8005F
:1054A0008091D9028093F1008091E8008E77C7CE79
:1054B000811133C08091DC029091DD02992702971F
:1054C00064F58091E800877F8093E8001091DC020A
:1054D0001093D9020E942822111106C08091E30086
:1054E00087FD02C081E001C084E08093E20242E0D7
:1054F00061EC81E00E94472242E261EC84E00E947C
:10550000472242E261EC82E00E94472242E260ECE4
:1055100083E00E9447228091E2028091E80083FFAD
:1055200010C08091E800877F8093E8008091EB00B5
:1055300080628093EB0005C082E190E0E1E7F6E154
:105540004FCFAA960FB6F894DEBF0FBECDBFDF9146
:10555000CF911F91089580E090E00E94CB2480E0DD
:1055600090E00E94B524109284020C94041FCF9204
:10557000DF92FF920F931F93CF93DF936C01009103
:10558000E30280918502082BC7E0D0E010E0C8015B
:105590000C2E02C0959587950A94E2F780FD04C011
:1055A0002197A8F7F12C09C0FC2EB6018C2F0E9480
:1055B000B4250E941F1D019799F38F2DDF91CF9184
:1055C0001F910F91FF90DF90CF900895CF93DF93BD
:1055D000EC010E94B72ABE010E94B4250E941F1D43
:1055E000DF91CF910895FC01808191810E94E62A8C
:1055F00092959F70963079F010F4925001C09A50B5
:10560000923068F4803F69F018F4883E40F409C095
:10561000843F29F406C0883E20F0813F11F080E0ED
:10562000089581E008959F92AF92BF92CF92DF924A
:10563000EF92FF920F931F93CF93DF93CDB7DEB717
:1056400061970FB6F894DEBF0FBECDBF8C0185E029
:10565000F801DE011D9601900D928A95E1F7F8019F
:10566000E28090914402609145024091470250913E
:1056700048024115510531F06F3F31F481E09F3F01
:1056800019F403C081E001C080E0F82FF1709F2E73
:1056900080FD02C1F80130812181C380D48084E47F
:1056A000A82E82E0B82EF0904602F601E41BF50B1E
:1056B000FF2009F4CAC080914902E436F10508F0E0
:1056C00095C0482F407F09F050C0621311C093135A
:1056D0000FC0FE2CE1100CC08F70806180934902D6
:1056E000C5010E942B1780914902F801858311C1E1
:1056F000CD2831F02F3F31F481E03F3F19F403C052
:1057000081E001C080E080FD03C081E08E2502C001
:1057100080E090E0F82FF170FF2E80FF1CC0809198
:105720007B0240914A0256E0841709F4D0C090E011
:10573000589FF001599FF00D1124E55BFD4F6181E9
:10574000261306C06081631303C06281E61203C0A2
:1057500001968770E9CFFE2CEE2009F4DAC0809123
:1057600049028160809349024DC062130AC09313BD
:1057700008C0E11006C0F8018583C8010E942B17FC
:105780006EC0C8010E94F32A882351F1EE2041F136
:1057900020914902822F82958F7090E0029774F0D9
:1057A000809144029091450298878F831986DB8609
:1057B000CA862C87CE0107960E942B1786E0F80137
:1057C000A4E4B2E001900D928A95E1F70E94351FA2
:1057D0000AC06217C9F0C8010E94F32A81111EC0D5
:1057E000C8010E942B17FF24F39493C0482F407FD9
:1057F00081F784E492E00E942B1786E0F501119274
:105800008A95E9F7F12C85C09313E5CFE110E3CF3A
:10581000F8018583C8010E942B1738C0EE2001F3E0
:1058200020914902822F82958F7090E0029734F286
:1058300080914402909145029A8389831B82DD8284
:10584000CC822E83CE010196B7CFE436F105F0F479
:10585000FE2CEE2029F262130BC0931309C086E0E0
:10586000F801A4E4B2E001900D928A95E1F751C0ED
:10587000C8010E94F32A8111A1CF80914902816061
:1058800080934902C8010E942B1743C086E0F501AE
:1058900011928A95E9F73DC0EE2009F4A1CFC80125
:1058A0000E94F32AF82E882309F49ACF86E0F801A3
:1058B000A4E4B2E001900D928A95E1F78091440250
:1058C000909145020E94E62A0E94351F22C03D8722
:1058D0002E878D859E850E94E62A292F22952F707E
:1058E000223028F49F7039F0811105C00BC024309C
:1058F00028F49F7049F4805E883020F0C8010E942F
:105900002B179F2CF92C05C0F8019581907F99F7F2
:10591000F9CF8F2D61960FB6F894DEBF0FBECDBFC5
:10592000DF91CF911F910F91FF90EF90DF90CF907B
:10593000BF90AF909F9008959E3F61F1292F220F55
:10594000920F990F980F692F6695669566959770D7
:1059500083E0689FB001112440E050E080E0FB014B
:10596000E40FF51FE151FB4F208130E0092E02C00A
:10597000369527950A94E2F721703327042E01C04B
:10598000220F0A94EAF7822B4F5F5F4F4330510595
:1059900031F7089580E008959E3F59F1292F220F95
:1059A000920F990F980FE92FE695E695E695977077
:1059B00051E001C0550F9A95EAF783E0E89FF001A6
:1059C0001124E151FB4F20E030E070E04081CB0139
:1059D000022E02C0969587950A94E2F78170819510
:1059E00084278523842781932F5F3F4F2330310500
:1059F00069F708958093E3020C94AB2A21E030E02C
:105A000001C0220F8A95EAF720958091E302822354
:105A10000C94FA2C21E030E001C0220F8A95EAF7BD
:105A20008091E302822B0C94FA2C809385020C94D3
:105A3000AB2A86E0EEE3F2E0DF011D928A95E9F7FA
:105A40000C94AB2A882341F080959091840289239D
:105A5000809384020C94041F0895882339F0909158
:105A60008402892B809384020C94041F0895882358
:105A700041F080959091CC0289238093CC020C94C4
:105A8000041F0895882339F09091CC02892B8093CC
:105A9000CC020C94041F08958823A9F19CEF980F61
:105AA000913A60F4ECE3F2E09281891301C0128232
:105AB000319642E0E234F407B9F714C090E2980F4F
:105AC000983090F4877021E030E0A90102C0440FC3
:105AD000551F8A95E2F7CA0180959091CC028923DF
